:020000040800F2
:100000000050002055200008451E00084D1E000825
:10001000551E00085D1E0008651E00080000000057
:100020000000000000000000000000006D1E00083D
:10003000791E000800000000851E0008911E0008BF
:100040009D2000089D2000089D2000089D2000089C
:100050009D2000089D2000089D2000089D2000088C
:100060009D2000089D2000089D2000089D2000087C
:100070009D2000089D2000089D2000089D2000086C
:100080009D2000089D2000089D2000089D2000085C
:100090009D2000089D1E00089D2000089D2000084E
:1000A0009D2000089D2000089D2000089D2000083C
:1000B0009D2000089D2000089D2000089D2000082C
:1000C0009D2000089D2000089D2000089D2000081C
:1000D0009D200008B11E00089D2000089D200008FA
:1000E0009D2000089D2000089D20000800000000C1
:1000F0000000000000000000000000000000000000
:0C01000000000000000000005FF808F1A3
:1001100010B5054C237833B9044B13B10448AFF341
:1001200000800123237010BDF401002000000000B6
:100130009899000808B5034B1BB103490348AFF376
:10014000008008BD00000000F80100209899000818
:1001500010F8012B11F8013B012A28BF9A42F7D071
:10016000D01A7047034613F8012B002AFBD1181A46
:100170000138704781F0004102E000BF83F0004386
:1001800030B54FEA41044FEA430594EA050F08BF32
:1001900090EA020F1FBF54EA000C55EA020C7FEAF6
:1001A000645C7FEA655C00F0E2804FEA5454D4EB73
:1001B0005555B8BF6D420CDD2C4480EA020281EA3D
:1001C000030382EA000083EA010180EA020281EA75
:1001D0000303362D88BF30BD11F0004F4FEA0131C7
:1001E0004FF4801C4CEA113102D0404261EB4101D6
:1001F00013F0004F4FEA03334CEA133302D052425C
:1002000063EB430394EA050F00F0A780A4F1010417
:10021000D5F1200E0DDB02FA0EFC22FA05F2801851
:1002200041F1000103FA0EF2801843FA05F3594137
:100230000EE0A5F120050EF1200E012A03FA0EFCB6
:1002400028BF4CF0020C43FA05F3C01851EBE371E0
:1002500001F0004507D54FF0000EDCF1000C7EEBFD
:1002600000006EEB0101B1F5801F1BD3B1F5001F3B
:100270000CD349085FEA30004FEA3C0C04F101045A
:100280004FEA445212F5800F80F09A80BCF1004F83
:1002900008BF5FEA500C50F1000041EB045141EA05
:1002A000050130BD5FEA4C0C404141EB0101013CCE
:1002B00028BFB1F5801FE9D291F0000F04BF0146BD
:1002C0000020B1FA81F308BF2033A3F10B03B3F18F
:1002D00020020CDA0C3208DD02F1140CC2F10C021F
:1002E00001FA0CF021FA02F10CE002F11402D8BF7D
:1002F000C2F1200C01FA02F120FA0CFCDCBF41EA49
:100300000C019040E41AA2BF01EB0451294330BD17
:100310006FEA04041F3C1CDA0C340EDC04F11404F4
:10032000C4F1200220FA04F001FA02F340EA0300CB
:1003300021FA04F345EA030130BDC4F10C04C4F111
:10034000200220FA02F001FA04F340EA03002946F1
:1003500030BD21FA04F0294630BD94F0000F83F43B
:10036000801306BF81F480110134013D4EE77FEA1E
:10037000645C18BF7FEA655C29D094EA050F08BF6A
:1003800090EA020F05D054EA000C04BF194610464B
:1003900030BD91EA030F1EBF0021002030BD5FEA8F
:1003A000545C05D14000494128BF41F0004130BDB7
:1003B00014F580043CBF01F5801130BD01F000450B
:1003C00045F0FE4141F470014FF0000030BD7FEA7E
:1003D000645C1ABF194610467FEA655C1CBF0B4679
:1003E000024650EA013406BF52EA033591EA030F90
:1003F00041F4002130BD00BF90F0000F04BF002188
:10040000704730B54FF4806404F132044FF00005BA
:100410004FF0000150E700BF90F0000F04BF002133
:10042000704730B54FF4806404F1320410F0004599
:1004300048BF40424FF000013EE700BF42004FEA94
:10044000E2014FEA31014FEA02701FBF12F07F4311
:1004500093F07F4F81F06051704732F07F4208BFC8
:10046000704793F07F4F04BF41F40021704730B5CF
:100470004FF4607401F0004521F000411CE700BF1B
:1004800050EA010208BF704730B54FF000050AE09E
:1004900050EA010208BF704730B511F0004502D59F
:1004A000404261EB41014FF4806404F132045FEAA1
:1004B000915C3FF4D8AE4FF003025FEADC0C18BF4A
:1004C00003325FEADC0C18BF033202EBDC02C2F13C
:1004D000200300FA03FC20FA02F001FA03FE40EACE
:1004E0000E0021FA02F11444BDE600BF70B54FF0D2
:1004F000FF0C4CF4E06C1CEA11541DBF1CEA1355B0
:1005000094EA0C0F95EA0C0F00F0DEF82C4481EA17
:10051000030621EA4C5123EA4C5350EA013518BF37
:1005200052EA033541F4801143F4801338D0A0FB24
:1005300002CE4FF00005E1FB02E506F00042E0FBD1
:1005400003E54FF00006E1FB03569CF0000F18BFD7
:100550004EF0010EA4F1FF04B6F5007F64F540747F
:1005600004D25FEA4E0E6D4146EB060642EAC62112
:1005700041EA55514FEAC52040EA5E504FEACE2E7F
:10058000B4F1FD0C88BFBCF5E06F1ED8BEF1004F82
:1005900008BF5FEA500E50F1000041EB045170BDFE
:1005A00006F0004646EA010140EA020081EA030142
:1005B000B4EB5C04C2BFD4EB0C0541EA045170BD3E
:1005C00041F480114FF0000E013C00F3AB8014F1B8
:1005D000360FDEBF002001F0004170BDC4F1000401
:1005E000203C35DA0C341BDC04F11404C4F1200582
:1005F00000FA05F320FA04F001FA05F240EA0200DD
:1006000001F0004221F0004110EBD37021FA04F612
:1006100042EB06015EEA430E08BF20EAD37070BDCC
:10062000C4F10C04C4F1200500FA04F320FA05F02B
:1006300001FA04F240EA020001F0004110EBD3702D
:1006400041F100015EEA430E08BF20EAD37070BD9D
:10065000C4F1200500FA05F24EEA020E20FA04F376
:1006600001FA05F243EA020321FA04F001F0004125
:1006700021FA04F220EA020000EBD3705EEA430E96
:1006800008BF20EAD37070BD94F0000F0FD101F0C5
:100690000046400041EB010111F4801F08BF013CFE
:1006A000F7D041EA060195F0000F18BF704703F03C
:1006B0000046520043EB030313F4801F08BF013DC3
:1006C000F7D043EA0603704794EA0C0F0CEA13557F
:1006D00018BF95EA0C0F0CD050EA410618BF52EA39
:1006E0004306D1D181EA030101F000414FF000003F
:1006F00070BD50EA410606BF1046194652EA43064D
:1007000019D094EA0C0F02D150EA013613D195EAC0
:100710000C0F05D152EA03361CBF104619460AD108
:1007200081EA030101F0004141F0FE4141F4700112
:100730004FF0000070BD41F0FE4141F4780170BD02
:1007400070B54FF0FF0C4CF4E06C1CEA11541DBF67
:100750001CEA135594EA0C0F95EA0C0F00F0A7F869
:10076000A4EB050481EA030E52EA03354FEA013196
:1007700000F088804FEA03334FF0805545EA1313A9
:1007800043EA12634FEA022245EA111545EA106571
:100790004FEA00260EF000419D4208BF964244F108
:1007A000FD0404F5407402D25B084FEA3202B61A27
:1007B00065EB03055B084FEA32024FF480104FF4FB
:1007C000002CB6EB020E75EB030E22BFB61A75466F
:1007D00040EA0C005B084FEA3202B6EB020E75EB02
:1007E000030E22BFB61A754640EA5C005B084FEA6A
:1007F0003202B6EB020E75EB030E22BFB61A754637
:1008000040EA9C005B084FEA3202B6EB020E75EB41
:10081000030E22BFB61A754640EADC0055EA060E02
:1008200018D04FEA051545EA16754FEA06164FEA45
:10083000C30343EA52734FEAC2025FEA1C1CC0D1F1
:1008400011F4801F0BD141EA00014FF000004FF07E
:10085000004CB6E711F4801F04BF01430020B4F13F
:10086000FD0C88BFBCF5E06F3FF6AFAEB5EB030CF7
:1008700004BFB6EB020C5FEA500C50F1000041EBF4
:10088000045170BD0EF0004E4EEA113114EB5C04C1
:10089000C2BFD4EB0C0541EA045170BD41F4801194
:1008A0004FF0000E013C90E645EA060E8DE60CEA9C
:1008B000135594EA0C0F08BF95EA0C0F3FF43BAFB9
:1008C00094EA0C0F0AD150EA01347FF434AF95EA70
:1008D0000C0F7FF425AF104619462CE795EA0C0F54
:1008E00006D152EA03353FF4FDAE1046194622E721
:1008F00050EA410618BF52EA43067FF4C5AE50EAFB
:1009000041047FF40DAF52EA43057FF4EBAE12E7EA
:100910004FF0FF3C06E000BF4FF0010C02E000BFCB
:100920004FF0010C4DF804CD4FEA410C7FEA6C5CAE
:100930004FEA430C18BF7FEA6C5C1BD001B050EA51
:10094000410C0CBF52EA430C91EA030F02BF90EA3C
:10095000020F0020704710F1000F91EA030F58BFFB
:10096000994208BF90422CBFD8176FEAE37040F05D
:10097000010070474FEA410C7FEA6C5C02D150EAFB
:10098000013C07D14FEA430C7FEA6C5CD6D152EAB6
:10099000033CD3D05DF8040B704700BF844610467B
:1009A00062468C461946634600E000BF01B5FFF77A
:1009B000B7FF002848BF10F1000F01BD4DF808ED4A
:1009C000FFF7F4FF0CBF012000205DF808FB00BF1B
:1009D0004DF808EDFFF7EAFF34BF012000205DF875
:1009E00008FB00BF4DF808EDFFF7E0FF94BF0120C2
:1009F00000205DF808FB00BF4DF808EDFFF7CEFFC3
:100A000094BF012000205DF808FB00BF4DF808ED01
:100A1000FFF7C4FF34BF012000205DF808FB00BFD2
:100A20004FEA410C7FEA6C5C02D150EA013C0AD1EA
:100A30004FEA430C7FEA6C5C02D152EA033C02D1DC
:100A40004FF0000070474FF0010070474FEA41023D
:100A500012F5001215D211D56FF47873B3EB625210
:100A600012D94FEAC12343F0004343EA505311F037
:100A7000004F23FA02F018BF404270474FF00000C9
:100A8000704750EA013005D111F0004008BF6FF007
:100A9000004070474FF00000704700BF4A0011D27D
:100AA00012F5001211D20DD56FF47873B3EB6252C8
:100AB0000ED44FEAC12343F0004343EA505323FAD4
:100AC00002F070474FF00000704750EA013002D149
:100AD0004FF0FF3070474FF0000070474FEA41027F
:100AE000B2F1E04324BFB3F5001CDCF1FE5C0DD98C
:100AF00001F0004C4FEAC0024CEA5070B2F1004FD6
:100B000040EB830008BF20F00100704711F0804FD8
:100B100021D113F13872BCBF01F00040704741F49D
:100B200080114FEA5252C2F11802C2F1200C10FAA1
:100B30000CF320FA02F018BF40F001004FEAC12385
:100B40004FEAD32303FA0CFC40EA0C0023FA02F329
:100B50004FEA4303CCE77FEA625307D150EA0133FF
:100B60001EBF4FF0FE4040F44000704701F00040CF
:100B700040F0FE4040F40000704700BF80F00040AD
:100B800002E000BF81F0004142001FBF5FEA410365
:100B900092EA030F7FEA226C7FEA236C6AD04FEA65
:100BA0001262D2EB1363C1BFD218414048404140AA
:100BB000B8BF5B42192B88BF704710F0004F40F45C
:100BC000000020F07F4018BF404211F0004F41F478
:100BD000000121F07F4118BF494292EA030F3FD044
:100BE000A2F1010241FA03FC10EB0C00C3F1200357
:100BF00001FA03F100F0004302D5494260EB4000E6
:100C0000B0F5000F13D3B0F1807F06D340084FEA50
:100C1000310102F10102FE2A51D2B1F1004F40EB45
:100C2000C25008BF20F0010040EA030070474900AD
:100C300040EB0000013A28BFB0F5000FEDD2B0FA4A
:100C400080FCACF1080CB2EB0C0200FA0CF0AABF6D
:100C500000EBC25052421843BCBFD040184370470B
:100C600092F0000F81F4000106BF80F40000013211
:100C7000013BB5E74FEA41037FEA226C18BF7FEAE8
:100C8000236C21D092EA030F04D092F0000F08BF2A
:100C90000846704790EA010F1CBF0020704712F011
:100CA0007F4F04D1400028BF40F00040704712F150
:100CB00000723CBF00F50000704700F0004343F0B5
:100CC000FE4040F4000070477FEA226216BF0846EB
:100CD0007FEA23630146420206BF5FEA412390EAAE
:100CE000010F40F4800070474FF0000304E000BFA4
:100CF00010F0004348BF40425FEA000C08BF704755
:100D000043F0964301464FF000001CE050EA010218
:100D100008BF70474FF000030AE000BF50EA01022D
:100D200008BF704711F0004302D5404261EB41011A
:100D30005FEA010C02BF84460146002043F0B6433F
:100D400008BFA3F18053A3F50003BCFA8CF2083A64
:100D5000A3EBC25310DB01FA02FC634400FA02FC6D
:100D6000C2F12002BCF1004F20FA02F243EB020074
:100D700008BF20F00100704702F1200201FA02FCD6
:100D8000C2F1200250EA4C0021FA02F243EB0200C9
:100D900008BF20EADC7070474FF0FF0C1CEAD0520D
:100DA0001EBF1CEAD15392EA0C0F93EA0C0F6FD0CE
:100DB0001A4480EA010C400218BF5FEA41211ED0AC
:100DC0004FF0006343EA501043EA5111A0FB013198
:100DD0000CF00040B1F5000F3EBF490041EAD3716D
:100DE0005B0040EA010062F17F02FD2A1DD8B3F1E9
:100DF000004F40EBC25008BF20F00100704790F058
:100E0000000F0CF0004C08BF49024CEA502040EAA9
:100E100051207F3AC2BFD2F1FF0340EAC25070476F
:100E200040F400004FF00003013A5DDC12F1190FAD
:100E3000DCBF00F000407047C2F10002410021FA1F
:100E400002F1C2F1200200FA02FC5FEA310040F137
:100E5000000053EA4C0308BF20EADC70704792F0B0
:100E6000000F00F0004C02BF400010F4000F013AE8
:100E7000F9D040EA0C0093F0000F01F0004C02BFE3
:100E8000490011F4000F013BF9D041EA0C018FE752
:100E90000CEAD15392EA0C0F18BF93EA0C0F0AD058
:100EA00030F0004C18BF31F0004CD8D180EA01007E
:100EB00000F00040704790F0000F17BF90F0004F17
:100EC000084691F0000F91F0004F14D092EA0C0FF9
:100ED00001D142020FD193EA0C0F03D14B0218BF8C
:100EE000084608D180EA010000F0004040F0FE40D2
:100EF00040F40000704740F0FE4040F4400070476E
:100F00004FF0FF0C1CEAD0521EBF1CEAD15392EAEC
:100F10000C0F93EA0C0F69D0A2EB030280EA010CDC
:100F200049024FEA402037D04FF0805343EA111175
:100F300043EA10130CF000408B4238BF5B0042F1D3
:100F40007D024FF4000C8B4224BF5B1A40EA0C0078
:100F5000B3EB510F24BFA3EB510340EA5C00B3EBAA
:100F6000910F24BFA3EB910340EA9C00B3EBD10F98
:100F700024BFA3EBD10340EADC001B0118BF5FEAEA
:100F80001C1CE0D1FD2A3FF650AF8B4240EBC25013
:100F900008BF20F0010070470CF0004C4CEA5020D4
:100FA0007F32C2BFD2F1FF0340EAC250704740F423
:100FB00000004FF00003013A37E792F0000F00F015
:100FC000004C02BF400010F4000F013AF9D040EA93
:100FD0000C0093F0000F01F0004C02BF490011F427
:100FE000000F013BF9D041EA0C0195E70CEAD1531F
:100FF00092EA0C0F08D142027FF47DAF93EA0C0F06
:101000007FF470AF084676E793EA0C0F04D14B02E9
:101010003FF44CAF08466EE730F0004C18BF31F09B
:10102000004CCAD130F000427FF45CAF31F0004395
:101030007FF43CAF5FE700BF4FF0FF3C06E000BF2E
:101040004FF0010C02E000BF4FF0010C4DF804CD51
:101050004FEA40024FEA41037FEA226C18BF7FEA61
:10106000236C11D001B052EA530C18BF90EA010F63
:1010700058BFB2EB030088BFC81738BF6FEAE170F2
:1010800018BF40F0010070477FEA226C02D15FEA8E
:10109000402C05D17FEA236CE4D15FEA412CE1D0FA
:1010A0005DF8040B704700BF844608466146FFE7C1
:1010B0000FB5FFF7C9FF002848BF10F1000F0FBDA3
:1010C0004DF808EDFFF7F4FF0CBF012000205DF89C
:1010D00008FB00BF4DF808EDFFF7EAFF34BF012021
:1010E00000205DF808FB00BF4DF808EDFFF7E0FFBA
:1010F00094BF012000205DF808FB00BF4DF808ED0B
:10110000FFF7D2FF94BF012000205DF808FB00BF6D
:101110004DF808EDFFF7C8FF34BF012000205DF84F
:1011200008FB00BF4FEA4002B2F1FE4F0FD34FF071
:101130009E03B3EB12620DD94FEA002343F0004344
:1011400010F0004F23FA02F018BF404270474FF0F2
:101150000000704712F1610F01D1420205D110F079
:10116000004008BF6FF0004070474FF0000070472C
:1011700038B50022002304460D46FFF729FC28B9A4
:1011800020462946BDE8384000F00AB8204605F15F
:10119000004100F005F8404261EB410138BD00BF5D
:1011A000D0B500220B4B06460F46FFF79FF9FFF71D
:1011B00075FC0446FFF720F90022074BFFF796F96C
:1011C00002460B4630463946FEF7D8FFFFF766FC6D
:1011D0002146D0BD0000F03D0000F041B0B5A0B008
:1011E00000AF78600B467B8008237B677B887B663B
:1011F00000233B670023FB66002387F878307A687A
:1012000007F1600307F16401344801F0B3F90346C4
:10121000002B01D000F020FD314B07F134041D46B6
:101220000FCD0FC40FCD0FC495E8070084E8070069
:1012300007F134031846FEF795FF03469AB207F10B
:1012400034014FF0FF33274802F094FD00F080FF97
:1012500003466433FB671CE000F07AFF0246FB6F35
:10126000934216D2204B07F10C041D460FCD0FC43C
:101270002B68238007F10C031846FEF773FF034623
:101280009AB207F10C014FF0FF33164802F072FDDD
:1012900021E03B6E1946114801F03BFA0346002B52
:1012A000DAD1124B07F120041D460FCD0FC42B6875
:1012B0001A46228002341B0C237007F120031846C3
:1012C000FEF750FF03469AB207F120014FF0FF33BB
:1012D000044802F04FFD8037BD46B0BD58020020E3
:1012E000B099000810020020DC990008F09900086D
:1012F00090B587B000AFF860B9607A603B60B968BC
:101300007868FFF73FFC03467B61B968F868FFF730
:10131000E1FE0346002B02D0BB68FB6008E0796861
:10132000F868FFF7F5FE0346002B01D07B68FB60F1
:10133000B968F868FFF726FC03461C4601223B68A3
:1013400002FA03F31846FFF7D3FC034679691846FF
:10135000FFF7D6FD034619462046FFF71DFD03465D
:101360001846FFF7DFFE034618461C37BD4690BD02
:1013700080B58AB000AFF860B9607A603B60544BCA
:101380001B681946B86808F0C3FA0246514B1B683F
:101390001946104608F0D1FAB8604F4B1B68194641
:1013A000786808F0B5FA02464C4B1B68194610469F
:1013B00008F0C3FA78604A4B1B681946386808F091
:1013C000A7FA0246474B1B681946104608F0B5FAC3
:1013D0003860454B1B681946386B08F099FA02468D
:1013E000424B1B681946104608F0A7FA3863404B79
:1013F0001B681946786B08F08BFA02463D4B1B6858
:101400001946104608F099FA7863314B1968314B48
:101410001A681023B868FFF76BFF78622E4B1968C3
:101420002E4B1A680C237868FFF762FF38622C4B4A
:1014300019682C4B1A680C233868FFF759FFF861BC
:10144000294B1968294B1A680C23386BFFF750FF9A
:10145000B861274B1968274B1A680C23786BFFF784
:1014600047FF78617B6A1B12DAB2FB681A707B6AED
:10147000DAB2FB685A703B6A1B11DAB2FB689A70E9
:101480003B6A1B015AB2FB691B125BB213435BB28E
:10149000DAB2FB68DA70FB69DAB2FB681A71BB6911
:1014A0001B11DAB2FB685A71BB691B015AB27B6926
:1014B0001B125BB213435BB2DAB2FB689A717B69B1
:1014C000DAB2FB68DA7100BF2837BD4680BD00BFC5
:1014D0000000002004000020080000200C00002074
:1014E000A002002018000020A40200201C00002000
:1014F000100000201400002080B584B000AF786098
:101500007B681B682C4A934252D12C4B1B78082BCA
:101510001AD12B4B1B78002B16D0294B1B78013B83
:10152000DAB2274B1A70274BFB6007F10C03184601
:10153000FEF718FE03469AB207F10C014FF0FF3395
:10154000214802F017FC2EE01C4B1B780D2B03D01A
:101550001A4B1B780A2B10D1194B1B78002B22D069
:10156000174B1B781A46194B00219954174800F065
:101570002FF8134B00221A7015E0114B1B781E2B0D
:1015800011D80F4B1B785A1CD1B20D4A11701A4654
:101590000A4B19780D4B99544FF0FF33012207493C
:1015A000094802F0E7FB01220449074802F06DFCFC
:1015B00000BF1037BD4680BD0038014080020020CA
:1015C000A80200200820080010020020AC02002021
:1015D0002DE9F04FBBB008AF786082497868FEF71C
:1015E000B7FD0346002B1DD17F4A07F11C0392E88B
:1015F000030083E803007D4B1A4607F11C0393E8C0
:10160000030082E8030001217848FFF7E7FD784BEB
:1016100001221A7007F12803764AA021184604F027
:10162000F1F8CCE074497868FEF792FD0346002B90
:101630001DD1724A07F1140392E8030083E8030006
:101640006A4B1A4607F1140393E8030082E803008B
:1016500001216648FFF7C2FD654B00221A7007F1B1
:101660002803674AA021184604F0CCF8A7E0654992
:101670007868FEF76DFD0346002B1AD1624A07F128
:101680000C0392E8030083E80300584B1A4607F165
:101690000C0393E8030082E8030001215348FFF79D
:1016A0009DFD07F12803594AA021184604F0AAF825
:1016B00085E007F124031A465549786804F0F6F8E6
:1016C0000346012B2BD14A4B1B78002B1FD0796A84
:1016D0004FF0000301934FF07E5300934D4B4FF0BA
:1016E00000024248FFF744FE01214048FFF776FD23
:1016F0007B6A1846FEF7A2FE02460B4607F1280059
:10170000CDE90023444AA02104F07CF857E007F11A
:101710002803424AA021184604F074F84FE04049DB
:101720007868FEF715FD0346002B32D1304B1B784D
:10173000002B01D03B4E00E03B4E3C4B1B68184653
:10174000FEF77CFE04460D46394B1B681846FEF733
:1017500075FE80468946374B1B681846FEF76EFEBD
:1017600082468B46344B1B681846FEF767FE0246DE
:101770000B4607F12800CDE90623CDE904ABCDE9FE
:101780000289CDE9004533462C4AA02104F03AF8FD
:1017900015E02B497868FEF7DBFC0346002B07D1E8
:1017A00007F12803274AA021184604F02BF806E089
:1017B00007F12803244AA021184604F023F807F172
:1017C00028031846FEF7CEFC03469AB207F128011B
:1017D0004FF0FF331D4802F0CDFA00BFCC37BD46B5
:1017E000BDE8F08F409A00080C9C0008840200209D
:1017F0009C020020449A00085C9A0008149C00088F
:10180000609A0008749A00081C9C0008789A0008E6
:101810008C9A000800004842949A0008AC9A00088C
:10182000E09A0008E49A0008E89A00088C02002078
:10183000900200209402002098020020EC9A0008F8
:101840002C9B0008349B0008D49B00081002002049
:10185000B0B58AB000AF00F023FC00F0ABF800F0A8
:1018600033F900F0E9F800F045F9002200211520D5
:1018700001F0B3FB152001F0CCFB0B4B3C1D1D46CA
:101880000FCD0FC40FCD0FC42B6823703B1D18461E
:10189000FEF768FC03469AB2391D4FF0FF33034848
:1018A00002F068FA00BFFDE7249C00081002002047
:1018B000B0B5ACB000AF7860394B07F194041D4669
:1018C0000FCD0FC42B68236007F194031846FEF771
:1018D00049FC03469AB207F194014FF0FF333148B7
:1018E00002F048FA07F1700307F1780201217868E5
:1018F00000F032FF0346002B4DD1BB6F07F10C0007
:10190000294A642103F07EFFC7F8AC00D7F8AC3059
:101910009AB207F10C014FF0FF33224802F02AFA85
:101920000023C7F8AC300023C7F8A8301CE007F14B
:101930000C02D7F8AC30D018D7F8AC30C3F1640142
:1019400007F17002D7F8A83013441B78174A03F048
:1019500059FF0246D7F8AC301344C7F8AC30D7F87B
:10196000A8300133C7F8A830D7F88820D7F8A830B6
:101970009A42DCD8D7F8AC309AB207F10C014FF09C
:10198000FF33084802F0F6F94FF0FF33022208490E
:10199000044802F0EFF900BFB037BD46B0BD00BF4C
:1019A000809C000810020020489C0008749C0008DD
:1019B0007C9C000880B590B000AF07F11803282286
:1019C0000021184603F0E1FF3B1D00221A605A6017
:1019D0009A60DA601A610123BB614FF48033FB61C6
:1019E00002237B634FF48033BB634FF4E013FB634C
:1019F00007F11803184601F05DFD0346002B01D0E6
:101A000000F02AF90F237B600223BB600023FB60F8
:101A10004FF480633B6100237B613B1D022118462C
:101A200001F0CAFF0346002B01D000F015F900BFFA
:101A30004037BD4680BD0000B0B586B000AF1E4B3C
:101A40001E4A1A601C4B4FF4E1325A601A4B0022B6
:101A50009A60194B0022DA60174B00221A61164B6C
:101A60000C225A61144B00229A61134B0022DA6156
:101A7000114802F02FF90346002B14D0104B3C1DE7
:101A80001D460FCD0FC42B6823803B1D1846FEF763
:101A900069FB03469AB2391D4FF0FF33064802F046
:101AA00069F900F0D9F801220649034802F0EDF97E
:101AB00000BF1837BD46B0BD1002002000380140FD
:101AC000949C00088002002080B483B000AF084BD3
:101AD0009B69074A43F004039361054B9B6903F03C
:101AE00004037B607B6800BF0C37BD4680BC704739
:101AF0000010024090B597B000AF504BDB694F4AE1
:101B000043F00073D3614D4BDB6903F000733B621C
:101B10003B6A4B4B4B4A1A60494B04225A60484B74
:101B200000229A60464B0022DA60454B4FF4A02217
:101B30001A61434B4FF480125A61414B00221A76CE
:101B40003F4B00225A763E4B00229A763C4B0122B4
:101B5000DA763B4B00221A77394B00225A77384805
:101B600000F000FB0346002B01D000F075F80023C5
:101B70007B640023BB640123FB640023BB6300235D
:101B8000FB6300233B6300237B6301233B6401234E
:101B90003B6507F130031946294800F0DEFB034698
:101BA000002B15D0284B07F110040FCB07C423805E
:101BB00007F110031846FEF7D5FA03469AB207F16B
:101BC00010014FF0FF33214802F0D4F800F044F840
:101BD00010211B4800F0E1FE194800F087FC034685
:101BE000002B12D000F038F8194A3B1D07CA03C376
:101BF0001A703B1D1846FEF7B5FA03469AB2391D16
:101C00004FF0FF33114802F0B5F8124A07F12403F0
:101C100007CA03C31A8007F124031846FEF7A2FA85
:101C200003469AB207F124014FF0FF33074802F050
:101C3000A1F800BF5C37BD4690BD00BF0010024058
:101C40005802002000640040A89C000810020020F8
:101C5000B89C0008C49C000880B584B000AF72B680
:101C600000BF094A3B1D07CA03C31A703B1D184633
:101C7000FEF778FA03469AB2391D4FF0FF33034856
:101C800002F078F800BFFDE7B89C000810020020C1
:101C900080B485B000AF154B9B69144A43F0010333
:101CA0009361124B9B6903F00103BB60BB680F4B50
:101CB000DB690E4A43F08053D3610C4BDB6903F0C0
:101CC00080537B607B680A4B5B68FB60FB6823F09A
:101CD000E063FB60FB6843F08063FB60044AFB68E1
:101CE000536000BF1437BD4680BC704700100240EF
:101CF0000000014080B588B000AF786007F11003A4
:101D000000221A605A609A60DA607B681B68204A79
:101D1000934239D11F4BDB691E4A43F00073D361F4
:101D20001C4BDB6903F00073FB60FB68194B9B697C
:101D3000184A43F004039361164B9B6903F00403B4
:101D4000BB60BB684FF400633B6100237B610123F0
:101D5000BB6107F1100319460F4801F027FA4FF451
:101D600080533B6102237B610323FB6107F1100376
:101D70001946094801F01AFA00220021152001F045
:101D80002CF9152001F045F900BF2037BD4680BD74
:101D900000640040001002400008014080B588B097
:101DA00000AF786007F1100300221A605A609A6051
:101DB000DA607B681B68204A934239D11F4B9B69CC
:101DC0001E4A43F4804393611C4B9B6903F4804398
:101DD000FB60FB68194B9B69184A43F0040393614D
:101DE000164B9B6903F00403BB60BB684FF40073A0
:101DF0003B6102237B610323FB6107F1100319465A
:101E00000F4801F0D3F94FF480633B6100237B61FD
:101E10000023BB6107F110031946094801F0C6F918
:101E200000220021252001F0D8F8252001F0F1F84A
:101E300000BF2037BD4680BD003801400010024081
:101E40000008014080B400AF00BFFDE780B400AFE0
:101E500000BFFDE780B400AF00BFFDE780B400AF76
:101E600000BFFDE780B400AF00BFFDE780B400AF66
:101E700000BFBD4680BC704780B400AF00BFBD4608
:101E800080BC704780B400AF00BFBD4680BC7047C7
:101E900080B500AF00F04AF900BF80BD80B500AF4B
:101EA000024800F09FFD00BF80BD00BF5802002027
:101EB00080B500AF024802F00DF800BF80BD00BF42
:101EC0001002002080B400AF01231846BD4680BC3C
:101ED000704780B582B000AF7860396003F0A8FD2C
:101EE000034616221A604FF0FF3318460837BD46E6
:101EF00080BD80B582B000AF78604FF0FF31786868
:101F0000FFF7E7FF00BFFDE780B586B000AFF860E0
:101F1000B9607A6000237B610AE0AFF3008001467C
:101F2000BB685A1CBA60CAB21A707B6901337B6104
:101F30007A697B689A42F0DB7B6818461837BD46A1
:101F400080BD80B586B000AFF860B9607A600023CC
:101F50007B6109E0BB685A1CBA601B781846AFF376
:101F600000807B6901337B617A697B689A42F1DB8F
:101F70007B6818461837BD4680BD80B483B000AF7B
:101F800078604FF0FF3318460C37BD4680BC704771
:101F900080B483B000AF786039603B684FF4005282
:101FA0005A60002318460C37BD4680BC704780B489
:101FB00083B000AF7860012318460C37BD4680BC63
:101FC000704780B485B000AFF860B9607A600023D4
:101FD00018461437BD4680BC7047000080B586B0F7
:101FE00000AF7860144A154BD31A7B617B693B6163
:101FF000134B1B68002B02D1114B124A1A60104B75
:102000001A687B6813443A699A4207D203F010FDBC
:1020100003460C221A604FF0FF3309E0084B1B689F
:10202000FB60074B1A687B681344054A1360FB6822
:1020300018461837BD4680BD00500020000400003F
:10204000CC0200202004002080B400AF00BFBD46B9
:1020500080BC7047FFF7F8FF0B480C490C4A00237F
:1020600002E0D458C4500433C4188C42F9D3094A4E
:10207000094C002301E013600432A242FBD303F0B9
:10208000DDFCFFF7E5FB704700000020F4010020B5
:102090005CA10008F401002020040020FEE70000FD
:1020A00080B500AF084B1B68074A43F0100313606C
:1020B000032000F087FF0F2000F008F8FFF7E8FD8D
:1020C0000023184680BD00BF0020024080B582B0CA
:1020D00000AF7860124B1A68124B1B7819464FF408
:1020E0007A73B3FBF1F3B2FBF3F3184600F09FFFF2
:1020F0000346002B01D001230EE07B680F2B0AD88A
:10210000002279684FF0FF3000F067FF064A7B68D5
:102110001360002300E0012318460837BD4680BD48
:1021200020000020280000202400002080B400AF00
:10213000054B1B781A46054B1B681344034A136072
:1021400000BFBD4680BC704728000020D0020020A0
:1021500080B400AF024B1B681846BD4680BC704778
:10216000D002002080B584B000AF78607B68002B7F
:1021700001D10123EDE07B6893F82030DBB2002B26
:1021800002D17868FFF7B6FD7B681B681A687B6828
:102190001B6842F001021A60FFF7DAFFF86012E0F4
:1021A000FFF7D6FF0246FB68D31A0A2B0BD97B68D0
:1021B0005B6A43F400327B685A627B68052283F8CD
:1021C00020200123C5E07B681B685B6803F00103E6
:1021D000002BE5D07B681B681A687B681B6822F0BF
:1021E00002021A60FFF7B4FFF86012E0FFF7B0FFD9
:1021F0000246FB68D31A0A2B0BD97B685B6A43F44F
:1022000000327B685A627B68052283F82020012314
:102210009FE07B681B685B6803F00203002BE5D13D
:102220007B681B7E012B08D17B681B681A687B6862
:102230001B6842F080021A6007E07B681B681A681E
:102240007B681B6822F080021A607B685B7E012B32
:1022500008D17B681B681A687B681B6842F04002E3
:102260001A6007E07B681B681A687B681B6822F0AD
:1022700040021A607B689B7E012B08D17B681B683B
:102280001A687B681B6842F020021A6007E07B68CE
:102290001B681A687B681B6822F020021A607B6842
:1022A000DB7E012B08D17B681B681A687B681B6882
:1022B00022F010021A6007E07B681B681A687B68CE
:1022C0001B6842F010021A607B681B7F012B08D14B
:1022D0007B681B681A687B681B6842F008021A60FA
:1022E00007E07B681B681A687B681B6822F008029D
:1022F0001A607B685B7F012B08D17B681B681A68BA
:102300007B681B6842F004021A6007E07B681B6868
:102310001A687B681B6822F004021A607B689A685E
:102320007B68DB681A437B681B691A437B685B69BF
:1023300042EA03017B685B685A1E7B681B680A439C
:10234000DA617B6800225A627B68012283F82020D0
:10235000002318461037BD4680BD80B487B000AF5B
:10236000786039607B681B687B617B6893F82030FC
:10237000FB74FB7C012B03D0FB7C022B40F0AA807A
:102380007B69D3F8003243F001027B69C3F8002275
:102390003B685B6903F01F03012202FA03F3FB6051
:1023A0007B69D3F81C22FB68DB431A407B69C3F8C6
:1023B0001C223B68DB69002B23D17B69D3F80C22FC
:1023C000FB68DB431A407B69C3F80C223B68DB687F
:1023D00019043B685B689BB23A68526919437B6990
:1023E000483243F832103B689B6819043B681B680D
:1023F0009AB23B685B690A4379694833DB000B4456
:102400005A603B68DB69012B22D17B69D3F80C222F
:10241000FB681A437B69C3F80C223B681B681904EC
:102420003B685B689BB23A68526919437B694832E2
:1024300043F832103B689B6819043B68DB689AB22A
:102440003B685B690A4379694833DB000B445A6097
:102450003B689B69002B09D17B69D3F80422FB6898
:10246000DB431A407B69C3F8042207E07B69D3F899
:102470000422FB681A437B69C3F804223B681B698A
:10248000002B09D17B69D3F81422FB68DB431A4087
:102490007B69C3F8142207E07B69D3F81422FB6838
:1024A0001A437B69C3F814223B681B6A012B07D1CE
:1024B0007B69D3F81C22FB681A437B69C3F81C2292
:1024C0007B69D3F8003223F001027B69C3F8002254
:1024D000002306E07B685B6A43F480227B685A62D3
:1024E000012318461C37BD4680BC704780B584B0B8
:1024F00000AF78607B6893F82030DBB2012B2ED1DF
:102500007B68022283F820207B681B681A687B683E
:102510001B6822F001021A60FFF71AFEF86012E051
:10252000FFF716FE0246FB68D31A0A2B0BD97B680D
:102530005B6A43F400327B685A627B68052283F849
:102540002020012312E07B681B685B6803F0010315
:10255000002BE5D17B6800225A62002306E07B68ED
:102560005B6A43F400227B685A62012318461037E5
:10257000BD4680BD80B489B000AFF860B9607A60B4
:102580003B60FB6893F82030FB77FB681B689B6817
:10259000BB61FB7F012B03D0FB7F022B40F0AD80A2
:1025A000BB6903F08063002B0AD1BB6903F00063B1
:1025B000002B05D1BB6903F08053002B00F0958000
:1025C000BB691B0E03F003037B6101227B699A4008
:1025D0003B681A60BB689B68002B0DD1BB681B6809
:1025E0005A05BB68DB68F96809681A437B691833C8
:1025F0001B010B441A600FE0BB685B68DA00BB6824
:102600009B681A43BB68DB68F96809681A437B69F1
:1026100018331B010B441A60FB681968BB681A6900
:102620007B6918331B010B4404331A60BB681B7DA4
:10263000012B11D1FB681A687B6918331B01134405
:1026400004331B68FA68116843F480727B6918339D
:102650001B010B4404331A607B6807331B781A068E
:102660007B6806331B781B041A437B6805331B7891
:102670001B0213437A68043212781046FA68116814
:1026800043EA00027B691B010B4403F5C6731A6021
:102690007B6803331B781A067B6802331B781B04A4
:1026A0001A437B6801331B781B0213437A68127844
:1026B0001046FA68116843EA00027B691B010B446B
:1026C00003F5C4731A60FB681A687B6918331B0131
:1026D00013441B68FA68116843F001027B691833E0
:1026E0001B010B441A6000230EE0FB685B6A43F495
:1026F0000012FB685A62012306E0FB685B6A43F440
:102700008022FB685A62012318462437BD4680BCEC
:10271000704780B485B000AF786039600023FB60FB
:102720007B6893F82030FB72FB7A012B02D0FB7A96
:10273000022B0BD17B681B689A683B689B061A408A
:102740003B689B069A4201D00123FB60FB68184658
:102750001437BD4680BC704780B487B000AFF860C6
:10276000B9607A603B60FB6893F82030FB75FB7DB5
:10277000012B03D0FB7D022B40F00381BB68002BB3
:102780000ED1FB681B68DB6803F00303002B16D136
:10279000FB685B6A43F40012FB685A620123F7E0AE
:1027A000FB681B681B6903F00303002B07D1FB6860
:1027B0005B6A43F40012FB685A620123E8E0FB689D
:1027C0001A68BB681B331B0113441B6803F0040227
:1027D0007B689A607B689B68002B0CD1FB681A6849
:1027E000BB681B331B0113441B685B0DC3F30A0258
:1027F0007B681A600BE0FB681A68BB681B331B011F
:1028000013441B68DB0823F060427B685A60FB6856
:102810001A68BB681B331B0113441B6803F00202D8
:102820007B68DA60FB681A68BB681B331B011344C2
:1028300004331B6803F00803002B03D07B680822D5
:102840001A610BE0FB681A68BB681B331B01134459
:1028500004331B6803F00F027B681A61FB681A6877
:10286000BB681B331B01134404331B681B0ADAB219
:102870007B689A61FB681A68BB681B331B011344B1
:1028800004331B681B0C9AB27B685A61FB681A6898
:10289000BB681B01134403F5DC731B68DAB23B68A9
:1028A0001A70FB681A68BB681B01134403F5DC73DC
:1028B0001B681A0A3B680133D2B21A70FB681A68A7
:1028C000BB681B01134403F5DC731B681A0C3B68DF
:1028D0000233D2B21A70FB681A68BB681B0113443A
:1028E00003F5DC731B681A0E3B680333D2B21A700F
:1028F000FB681A68BB681B01134403F5DE731A6892
:102900003B680433D2B21A70FB681A68BB681B01BB
:10291000134403F5DE731B681A0A3B680533D2B211
:102920001A70FB681A68BB681B01134403F5DE7359
:102930001B681A0C3B680633D2B21A70FB681A681F
:10294000BB681B01134403F5DE731B681A0E3B685A
:102950000733D2B21A70BB68002B08D1FB681B6822
:10296000DA68FB681B6842F02002DA6007E0FB6867
:102970001B681A69FB681B6842F020021A61002379
:1029800006E0FB685B6A43F48022FB685A6201231D
:1029900018461C37BD4680BC704780B485B000AF78
:1029A000786039607B6893F82030FB73FB7B012BE8
:1029B00002D0FB7B022B09D17B681B6859697B68BD
:1029C0001B683A680A435A61002306E07B685B6A29
:1029D00043F480227B685A62012318461437BD46AF
:1029E00080BC704780B58AB000AF786000237B62FE
:1029F0007B681B685B693B627B681B685B68FB618B
:102A00007B681B689B68BB617B681B68DB687B61BC
:102A10007B681B681B693B617B681B689B69FB606B
:102A20003B6A03F00103002B7CD0BB6903F0010378
:102A3000002B23D07B681B6801229A60BB6903F0DE
:102A40000203002B03D0786800F083F916E0BB691D
:102A500003F00403002B04D07B6A43F400637B6221
:102A60000CE0BB6903F00803002B04D07B6A43F43D
:102A700080537B6202E0786800F086F9BB6903F45A
:102A80008073002B24D07B681B684FF480729A609F
:102A9000BB6903F40073002B03D0786800F062F97F
:102AA00016E0BB6903F48063002B04D07B6A43F417
:102AB00000537B620CE0BB6903F40063002B04D07D
:102AC0007B6A43F480437B6202E0786800F065F93A
:102AD000BB6903F48033002B24D07B681B684FF460
:102AE00080329A60BB6903F40033002B03D078680E
:102AF00000F041F916E0BB6903F48023002B04D0F9
:102B00007B6A43F400437B620CE0BB6903F400235F
:102B1000002B04D07B6A43F480337B6202E0786848
:102B200000F044F93B6A03F00803002B0CD07B69EA
:102B300003F01003002B07D07B6A43F400737B6221
:102B40007B681B681022DA603B6A03F00403002BE9
:102B50000BD07B6903F00803002B06D07B681B6851
:102B60000822DA60786800F033F93B6A03F0020368
:102B7000002B09D07B681B68DB6803F00303002B84
:102B800002D0786800F01BF93B6A03F04003002B89
:102B90000CD03B6903F01003002B07D07B6A43F491
:102BA00080637B627B681B6810221A613B6A03F0BA
:102BB0002003002B0BD03B6903F00803002B06D049
:102BC0007B681B6808221A61786800F00AF93B6A82
:102BD00003F01003002B09D07B681B681B6903F00E
:102BE0000303002B02D07868FEF762FE3B6A03F411
:102BF0000033002B0BD0FB6903F01003002B06D031
:102C00007B681B6810225A60786800F0F3F83B6A12
:102C100003F48033002B0BD0FB6903F00803002B77
:102C200006D07B681B6808225A60786800F0EBF8D1
:102C30003B6A03F40043002B7BD0FB6903F00403E1
:102C4000002B72D03B6A03F48073002B08D0FB6822
:102C500003F00103002B03D07B6A43F001037B6286
:102C60003B6A03F40073002B08D0FB6803F00203F7
:102C7000002B03D07B6A43F002037B623B6A03F4C0
:102C80008063002B08D0FB6803F00403002B03D003
:102C90007B6A43F004037B623B6A03F40063002B0E
:102CA00043D0FB6803F07003002B3ED0FB6803F0B9
:102CB0007003602B2BD0602B2ED8502B22D0502BA2
:102CC0002AD8402B19D0402B26D8302B10D0302BAF
:102CD00022D8102B02D0202B05D01DE07B6A43F0B8
:102CE00008037B6219E07B6A43F010037B6214E007
:102CF0007B6A43F020037B620FE07B6A43F0400372
:102D00007B620AE07B6A43F080037B6205E07B6ABA
:102D100043F480737B6200E000BF7B681B689A69A4
:102D20007B681B6822F070029A617B681B68042232
:102D30005A607B6A002B08D07B685A6A7B6A1A4308
:102D40007B685A62786800F067F800BF2837BD4694
:102D500080BD80B483B000AF786000BF0C37BD4643
:102D600080BC704780B483B000AF786000BF0C3780
:102D7000BD4680BC704780B483B000AF786000BFB0
:102D80000C37BD4680BC704780B483B000AF78601C
:102D900000BF0C37BD4680BC704780B483B000AF25
:102DA000786000BF0C37BD4680BC704780B483B0EC
:102DB00000AF786000BF0C37BD4680BC704780B460
:102DC00083B000AF786000BF0C37BD4680BC704751
:102DD00080B483B000AF786000BF0C37BD4680BCC4
:102DE000704780B483B000AF786000BF0C37BD4639
:102DF00080BC704780B483B000AF786000BF0C37F0
:102E0000BD4680BC704780B483B000AF786000BF1F
:102E10000C37BD4680BC704780B483B000AF78608B
:102E200000BF0C37BD4680BC7047000080B485B041
:102E300000AF78607B6803F00703FB600C4BDB6836
:102E4000BB60BA684FF6FF031340BB60FB681A0211
:102E5000BB68134343F0BF6343F40033BB60044AD1
:102E6000BB68D36000BF1437BD4680BC704700BF4D
:102E700000ED00E080B400AF044BDB681B0A03F0F8
:102E800007031846BD4680BC704700BF00ED00E058
:102E900080B483B000AF0346FB7197F90730002B75
:102EA0000BDBFB7903F01F02064997F907305B093A
:102EB000012000FA02F241F8232000BF0C37BD4682
:102EC00080BC704700E100E080B483B000AF0346EF
:102ED0003960FB7197F90730002B0ADB3B68DAB2E7
:102EE0000C4997F907301201D2B20B4483F8002342
:102EF0000AE03B68DAB20849FB7903F00F03043BB0
:102F00001201D2B20B441A7600BF0C37BD4680BC0A
:102F1000704700BF00E100E000ED00E080B489B040
:102F200000AFF860B9607A60FB6803F00703FB61EB
:102F3000FB69C3F10703042B28BF0423BB61FB69B2
:102F40000433062B02D9FB69033B00E000237B61BD
:102F50004FF0FF32BB6902FA03F3DA43BB681A4051
:102F60007B699A404FF0FF317B6901FA03F3D94343
:102F70007B680B40134318462437BD4680BC70471E
:102F800080B582B000AF78607B68013BB3F1807F91
:102F900001D301230FE00A4A7B68013B53600F21F4
:102FA0004FF0FF30FFF790FF054B00229A60044B73
:102FB00007221A60002318460837BD4680BD00BFAF
:102FC00010E000E080B582B000AF78607868FFF76D
:102FD0002DFF00BF0837BD4680BD80B586B000AF6D
:102FE0000346B9607A60FB7300237B61FFF742FF01
:102FF00078617A68B9687869FFF790FF024697F9B7
:103000000F3011461846FFF75FFF00BF1837BD4667
:1030100080BD80B582B000AF0346FB7197F90730E1
:103020001846FFF735FF00BF0837BD4680BD80B5A5
:1030300082B000AF78607868FFF7A2FF03461846B9
:103040000837BD4680BD80B485B000AF78600023EE
:10305000FB737B6893F82130DBB2022B08D07B68CE
:1030600004229A637B68002283F82020012320E059
:103070007B681B681A687B681B6822F00E021A6066
:103080007B681B681A687B681B6822F001021A6063
:103090007B681A6C7B68DB6B012101FA02F25A60D3
:1030A0007B68012283F821207B68002283F820209E
:1030B000FB7B18461437BD4680BC704780B584B092
:1030C00000AF78600023FB737B6893F82130DBB29C
:1030D000022B05D07B6804229A630123FB7351E025
:1030E0007B681B681A687B681B6822F00E021A60F6
:1030F0007B681B681A687B681B6822F001021A60F3
:103100007B681B68224A934229D07B681B68214A4E
:10311000934222D07B681B681F4A93421AD07B6877
:103120001B681E4A934212D07B681B681C4A93425C
:103130000AD07B681B681B4A934202D14FF480136C
:103140000EE04FF080730BE04FF4803308E04FF453
:10315000805305E04FF4807302E0102300E0012368
:10316000114A53607B68012283F821207B6800228A
:1031700083F820207B685B6B002B03D07B685B6B44
:1031800078689847FB7B18461037BD4680BD00BF66
:10319000080002401C00024030000240440002408F
:1031A000580002406C0002400000024080B48BB026
:1031B00000AF7860396000237B6200233B6269E1E5
:1031C00001227B6A02FA03F3FB613B681B68FA6920
:1031D0001340BB61BA69FB699A4240F058813B6871
:1031E0005B689A4A93425ED0984A934275D8984A4F
:1031F000934258D0964A93426FD8964A934252D0FF
:10320000944A934269D8944A93424CD0924A93424A
:1032100063D8924A934246D0904A93425DD8122B8B
:103220002AD8122B59D801A252F823F0A73200084D
:103230008132000893320008D5320008DB320008E2
:10324000DB320008DB320008DB320008DB3200082A
:10325000DB320008DB320008DB320008DB3200081A
:10326000DB320008DB320008DB320008DB3200080A
:10327000893200089D320008794A934213D02CE02D
:103280003B68DB683B6229E03B68DB6804333B62F8
:1032900024E03B68DB6808333B621FE03B68DB6887
:1032A0000C333B621AE03B689B68002B02D104237D
:1032B0003B6213E03B689B68012B05D108233B620E
:1032C0007B68FA691A6109E008233B627B68FA6946
:1032D0005A6103E000233B6200E000BFBB69FF2BA3
:1032E00001D87B6801E07B6804337B61BB69FF2BFD
:1032F00002D87B6A9B0002E07B6A083B9B003B6133
:103300007B691A680F213B6901FA03F3DB431A401A
:10331000396A3B6901FA03F31A437B691A603B6817
:103320005B6803F08053002B00F0B1804D4B9B692C
:103330004C4A43F0010393614A4B9B6903F001033C
:10334000BB60BB68484A7B6A9B08023352F8233053
:10335000FB607B6A03F003039B000F2202FA03F376
:10336000DB43FA681340FB607B68404A934213D00A
:103370007B683F4A93420DD07B683E4A934207D018
:103380007B683D4A934201D1032306E0042304E015
:10339000022302E0012300E000237A6A02F0030224
:1033A00092009340FA681343FB602F497B6A9B08A5
:1033B0000233FA6841F823203B685B6803F480130A
:1033C000002B06D02D4B9A682C49BB6913438B60A8
:1033D00006E02A4B9A68BB69DB43284913408B609F
:1033E0003B685B6803F40013002B06D0234BDA68BC
:1033F0002249BB691343CB6006E0204BDA68BB6906
:10340000DB431E491340CB603B685B6803F4003329
:10341000002B06D0194B5A681849BB6913434B60FF
:1034200006E0164B5A68BB69DB43144913404B60F6
:103430003B685B6803F48033002B21D00F4B1A6884
:103440000E49BB6913430B6021E000BF000032103E
:1034500000003110000022100000211000001210A6
:10346000000011100010024000000140000801405F
:10347000000C014000100140001401400004014014
:103480000B4B1A68BB69DB43094913400B607B6A2D
:1034900001337B623B681A687B6A22FA03F3002BD4
:1034A0007FF48EAE00BF00BF2C37BD4680BC704796
:1034B0000004014080B586B000AF78607B68002BC7
:1034C00001D1012372E27B681B6803F00103002B2A
:1034D00000F08780924B5B6803F00C03042B0CD048
:1034E0008F4B5B6803F00C03082B12D18C4B5B688D
:1034F00003F48033B3F5803F0BD1894B1B6803F491
:103500000033002B6CD07B685B68002B68D10123F3
:103510004CE27B685B68B3F5803F06D1804B1B684B
:103520007F4A43F4803313602EE07B685B68002B96
:103530000CD17B4B1B687A4A23F480331360784BA1
:103540001B68774A23F4802313601DE07B685B6867
:10355000B3F5A02F0CD1724B1B68714A43F4802342
:1035600013606F4B1B686E4A43F4803313600BE0AB
:103570006B4B1B686A4A23F480331360684B1B68EB
:10358000674A23F4802313607B685B68002B13D0A9
:10359000FEF7DEFD386108E0FEF7DAFD02463B6922
:1035A000D31A642B01D9032300E25D4B1B6803F49B
:1035B0000033002BF0D014E0FEF7CAFD386108E0BC
:1035C000FEF7C6FD02463B69D31A642B01D90323DB
:1035D000ECE1534B1B6803F40033002BF0D100E007
:1035E00000BF7B681B6803F00203002B63D04C4BC9
:1035F0005B6803F00C03002B0BD0494B5B6803F0B6
:103600000C03082B1CD1464B5B6803F48033002B62
:1036100016D1434B1B6803F00203002B05D07B68D7
:103620001B69012B01D00123C0E13D4B1B6823F036
:10363000F8027B685B69DB00394913430B603AE0B1
:103640007B681B69002B20D0364B01221A60FEF7E5
:103650007FFD386108E0FEF77BFD02463B69D31A27
:10366000022B01D90323A1E12D4B1B6803F00203B8
:10367000002BF0D02A4B1B6823F0F8027B685B69B3
:10368000DB00274913430B6015E0264B00221A602C
:10369000FEF75EFD386108E0FEF75AFD02463B6921
:1036A000D31A022B01D9032380E11D4B1B6803F0C1
:1036B0000203002BF0D17B681B6803F00803002B8A
:1036C0003AD07B689B69002B19D0174B01221A60F6
:1036D000FEF73EFD386108E0FEF73AFD02463B6921
:1036E000D31A022B01D9032360E10D4B5B6A03F06F
:1036F0000203002BF0D0012000F0CEFA1CE00A4BB0
:1037000000221A60FEF724FD38610FE0FEF720FD6D
:1037100002463B69D31A022B08D9032346E100BFB6
:10372000001002400000424280044242924B5B6A19
:1037300003F00203002BE9D17B681B6803F004034C
:10374000002B00F0A6800023FB758B4BDB6903F098
:103750008053002B0DD1884BDB69874A43F080539F
:10376000D361854BDB6903F08053BB60BB680123E9
:10377000FB75824B1B6803F48073002B18D17F4BC1
:103780001B687E4A43F480731360FEF7E1FC3861E6
:1037900008E0FEF7DDFC02463B69D31A642B01D931
:1037A000032303E1754B1B6803F48073002BF0D0F7
:1037B0007B68DB68012B06D16F4B1B6A6E4A43F0B6
:1037C000010313622DE07B68DB68002B0CD16A4B90
:1037D0001B6A694A23F001031362674B1B6A664A3E
:1037E00023F0040313621CE07B68DB68052B0CD11B
:1037F000614B1B6A604A43F0040313625E4B1B6A11
:103800005D4A43F0010313620BE05B4B1B6A5A4AAB
:1038100023F001031362584B1B6A574A23F0040339
:1038200013627B68DB68002B15D0FEF791FC3861D2
:103830000AE0FEF78DFC02463B69D31A41F288325A
:10384000934201D90323B1E04B4B1B6A03F00203FF
:10385000002BEED014E0FEF77BFC38610AE0FEF7A7
:1038600077FC02463B69D31A41F28832934201D970
:1038700003239BE0404B1B6A03F00203002BEED1B5
:10388000FB7D012B05D13C4BDB693B4A23F0805388
:10389000D3617B68DB69002B00F08780364B5B6867
:1038A00003F00C03082B61D07B68DB69022B46D147
:1038B000334B00221A60FEF74BFC386108E0FEF73C
:1038C00047FC02463B69D31A022B01D903236DE062
:1038D000294B1B6803F00073002BF0D17B681B6A37
:1038E000B3F5803F08D1244B5B6823F400327B683A
:1038F0009B68214913434B601F4B5B6823F4741290
:103900007B68196A7B685B6A0B431B4913434B60F6
:103910001B4B01221A60FEF71BFC386108E0FEF722
:1039200017FC02463B69D31A022B01D903233DE061
:10393000114B1B6803F00073002BF0D035E0104BE7
:1039400000221A60FEF704FC386108E0FEF700FC74
:1039500002463B69D31A022B01D9032326E0064B0A
:103960001B6803F00073002BF0D11EE07B68DB695D
:10397000012B07D1012319E0001002400070004024
:10398000600042420B4B5B68FB60FB6803F48032D3
:103990007B681B6A9A4206D1FB6803F470127B684D
:1039A0005B6A9A4201D0012300E0002318461837D1
:1039B000BD4680BD0010024080B584B000AF786085
:1039C00039607B68002B01D10123D0E06A4B1B6872
:1039D00003F007033A689A4210D9674B1B6823F03B
:1039E000070265493B6813430B60634B1B6803F098
:1039F00007033A689A4201D00123B8E07B681B684C
:103A000003F00203002B20D07B681B6803F0040343
:103A1000002B05D0594B5B68584A43F4E063536070
:103A20007B681B6803F00803002B05D0534B5B68D1
:103A3000524A43F460535360504B5B6823F0F002EA
:103A40007B689B684D4913434B607B681B6803F0A0
:103A50000103002B40D07B685B68012B07D1474BEB
:103A60001B6803F40033002B15D101237FE07B6832
:103A70005B68022B07D1414B1B6803F00073002BDE
:103A800009D1012373E03D4B1B6803F00203002BB7
:103A900001D101236BE0394B5B6823F003027B68A3
:103AA0005B68364913434B60FEF752FBF8600AE04F
:103AB000FEF74EFB0246FB68D31A41F2883293426E
:103AC00001D9032353E02D4B5B6803F00C027B68A4
:103AD0005B689B009A42EBD1274B1B6803F00703FE
:103AE0003A689A4210D2244B1B6823F007022249FD
:103AF0003B6813430B60204B1B6803F007033A68D5
:103B00009A4201D0012332E07B681B6803F0040372
:103B1000002B08D0194B5B6823F4E0627B68DB68FC
:103B2000164913434B607B681B6803F00803002BA6
:103B300009D0124B5B6823F460527B681B69DB0081
:103B40000E4913434B6000F021F802460B4B5B68B3
:103B50001B0903F00F030A49CB5C22FA03F3094A5D
:103B60001360094B1B681846FEF7B0FA002318468D
:103B70001037BD4680BD00BF00200240001002404B
:103B8000DC9C0008200000202400002080B487B0C6
:103B900000AF0023FB600023BB6000237B61002398
:103BA0007B6000233B611E4B5B68FB60FB6803F09E
:103BB0000C03042B02D0082B03D027E0194B3B61E8
:103BC00027E0FB689B0C03F00F03174AD35C7B6074
:103BD000FB6803F48033002B10D0114B5B685B0C47
:103BE00003F00103114AD35CBB607B680D4A03FB01
:103BF00002F2BB68B2FBF3F37B6104E07B680C4A22
:103C000002FB03F37B617B693B6102E0054B3B6197
:103C100000BF3B6918461C37BD4680BC704700BFDB
:103C20000010024000127A00F49C0008049D000875
:103C300000093D0080B400AF024B1B681846BD462A
:103C400080BC70472000002080B500AFFFF7F2FF76
:103C50000246054B5B681B0A03F007030349CB5C74
:103C600022FA03F3184680BD00100240EC9C0008C5
:103C700080B500AFFFF7DEFF0246054B5B68DB0A4D
:103C800003F007030349CB5C22FA03F3184680BD17
:103C900000100240EC9C000880B485B000AF786052
:103CA0000A4B1B680A4AA2FB03235B0A7A6802FBE1
:103CB00003F3FB6000BFFB685A1EFA60002BF9D1CA
:103CC00000BF00BF1437BD4680BC704720000020F5
:103CD000D34D621080B582B000AF78607B68002B56
:103CE00001D1012342E07B6893F84130DBB2002B25
:103CF00006D17B68002283F840207868FEF74EF8F2
:103D00007B68242283F841207B681B68DA687B6823
:103D10001B6822F40052DA60786800F0B7FD7B6817
:103D20001B681A697B681B6822F490421A617B68E1
:103D30001B685A697B681B6822F02A025A617B68FB
:103D40001B68DA687B681B6842F40052DA607B68A3
:103D500000225A647B68202283F841207B6820225D
:103D600083F842207B6800225A63002318460837F4
:103D7000BD4680BD80B58AB002AFF860B9603B60D7
:103D80001346FB8000237B61FB6893F84130DBB274
:103D9000202B75D1BB68002B02D0FB88002B01D1F2
:103DA00001236EE0FB6800225A64FB68212283F83D
:103DB0004120FEF7CDF97861FB68FA889A84FB68A8
:103DC000FA88DA84FB689B68B3F5805F08D1FB68EA
:103DD0001B69002B04D10023FB61BB68BB6103E0BE
:103DE000BB68FB610023BB612EE03B6800937B69ED
:103DF00000228021F86800F01CFB0346002B05D050
:103E0000FB68202283F8412003233AE0FB69002B62
:103E10000BD1BB691B881A46FB681B68C2F30802FA
:103E20005A60BB690233BB6107E0FB691A78FB6823
:103E30001B685A60FB690133FB61FB68DB8C9BB23A
:103E4000013B9AB2FB68DA84FB68DB8C9BB2002BE7
:103E5000CBD13B6800937B6900224021F86800F0D9
:103E6000E8FA0346002B05D0FB68202283F84120A6
:103E7000032306E0FB68202283F84120002300E0B2
:103E8000022318462037BD4680BD80B584B000AF00
:103E9000F860B9601346FB80FB6893F84230DBB2F0
:103EA000202B12D1BB68002B02D0FB88002B01D144
:103EB00001230BE0FB6800221A63FB881A46B968ED
:103EC000F86800F00FFB034600E0022318461037A5
:103ED000BD4680BD80B5BAB000AF78607B681B6816
:103EE0001B68C7F8E4307B681B68DB68C7F8E03004
:103EF0007B681B685B69C7F8DC300023C7F8D830E3
:103F00000023C7F8D430D7F8E43003F00F03C7F824
:103F1000D830D7F8D830002B0FD1D7F8E43003F0E1
:103F20002003002B09D0D7F8E03003F02003002B4A
:103F300003D0786800F0ECFB5BE2D7F8D830002BB8
:103F400000F0DE80D7F8DC3003F00103002B06D14F
:103F5000D7F8E03003F49073002B00F0D180D7F84D
:103F6000E43003F00103002B0BD0D7F8E03003F46A
:103F70008073002B05D07B685B6C43F001027B688B
:103F80005A64D7F8E43003F00403002B0BD0D7F8C1
:103F9000DC3003F00103002B05D07B685B6C43F041
:103FA00002027B685A64D7F8E43003F00203002B66
:103FB0000BD0D7F8DC3003F00103002B05D07B6871
:103FC0005B6C43F004027B685A64D7F8E43003F07A
:103FD0000803002B11D0D7F8E03003F02003002BAA
:103FE00005D1D7F8DC3003F00103002B05D07B6846
:103FF0005B6C43F008027B685A647B685B6C002B47
:1040000000F0F281D7F8E43003F02003002B08D051
:10401000D7F8E03003F02003002B02D0786800F0DE
:1040200077FB7B681B685B6903F04003002B14BFC0
:1040300001230023DBB2C7F8D4307B685B6C03F04C
:104040000803002B03D1D7F8D430002B4FD0786869
:1040500000F081FA7B681B685B6903F04003002B6A
:1040600041D07B681B681433C7F89C30D7F89C306C
:1040700053E8003FC7F89830D7F8983023F0400352
:10408000C7F8D0307B681B681433D7F8D020C7F846
:10409000A820C7F8A430D7F8A410D7F8A82041E882
:1040A0000023C7F8A030D7F8A030002BD9D17B6807
:1040B000DB6B002B13D07B68DB6B7E4A5A637B681B
:1040C000DB6B1846FEF7FAFF0346002B16D07B6821
:1040D000DB6B5B6B7A68D26B104698470EE07868B2
:1040E00000F093F90AE0786800F08FF906E078684C
:1040F00000F08BF97B6800225A6475E100BF73E120
:104100007B681B6B012B40F04F81D7F8E43003F044
:104110001003002B00F04881D7F8E03003F01003C3
:10412000002B00F041810023BB607B681B681B688B
:10413000BB607B681B685B68BB60BB687B681B6897
:104140005B6903F04003002B00F0B6807B68DB6BFB
:104150001B685B68A7F8BE30B7F8BE30002B00F0D4
:1041600045817B689B8DB7F8BE209A4280F03E81E6
:104170007B68B7F8BE20DA857B68DB6B9B69202BF8
:1041800000F088807B681B680C33C7F88830D7F84C
:10419000883053E8003FC7F88430D7F8843023F4E0
:1041A0008073C7F8B8307B681B680C33D7F8B82029
:1041B000C7F89420C7F89030D7F89010D7F894201B
:1041C00041E80023C7F88C30D7F88C30002BD9D1C8
:1041D0007B681B6814337B677B6F53E8003F3B674A
:1041E0003B6F23F00103C7F8B4307B681B681433BE
:1041F000D7F8B420C7F88020FB67F96FD7F8802084
:1042000041E80023BB67BB6F002BE1D17B681B68D3
:1042100014333B663B6E53E8003FFB65FB6D23F0B8
:104220004003C7F8B0307B681B681433D7F8B02060
:10423000FA66BB66B96EFA6E41E800237B667B6E58
:10424000002BE3D17B68202283F842207B68002288
:104250001A637B681B680C33FB64FB6C53E8003FFC
:10426000BB64BB6C23F01003C7F8AC307B681B68E1
:104270000C33D7F8AC20BA657B65796DBA6D41E82F
:1042800000233B653B6D002BE3D17B68DB6B18465D
:10429000FEF7D9FE7B6802225A637B689A8D7B68A1
:1042A000DB8D9BB2D31A9BB21946786800F0B6F842
:1042B0009CE000BF1B4600087B689A8D7B68DB8D05
:1042C0009BB2D31AA7F8CE307B68DB8D9BB2002B54
:1042D00000F08E80B7F8CE30002B00F089807B682C
:1042E0001B680C33BB63BB6B53E8003F7B637B6B8A
:1042F00023F49073C7F8C8307B681B680C33D7F879
:10430000C8207A643B64396C7A6C41E80023FB6313
:10431000FB6B002BE3D17B681B6814337B627B6AE9
:1043200053E8003F3B623B6A23F00103C7F8C43007
:104330007B681B681433D7F8C4203A63FB62F96AC0
:104340003A6B41E80023BB62BB6A002BE3D17B6878
:10435000202283F842207B6800221A637B681B6856
:104360000C333B613B6953E8003FFB60FB6823F083
:104370001003C7F8C0307B681B680C33D7F8C02027
:10438000FA61BB61B969FA6941E800237B617B6925
:10439000002BE3D17B6802225A63B7F8CE3019466E
:1043A000786800F03BF823E0D7F8E43003F08003AE
:1043B000002B09D0D7F8E03003F08003002B03D0A6
:1043C000786800F03EF914E0D7F8E43003F04003D9
:1043D000002B0ED0D7F8E03003F04003002B08D0BC
:1043E000786800F07DF904E000BF02E000BF00E063
:1043F00000BFE837BD4680BD80B483B000AF7860B1
:1044000000BF0C37BD4680BC704780B483B000AF9E
:10441000786000BF0C37BD4680BC704780B483B065
:1044200000AF78600B467B8000BF0C37BD4680BC78
:10443000704780B586B000AFF860B9603B60134646
:10444000FB713BE03B6AB3F1FF3F37D0FDF780FEE5
:1044500002463B68D31A3A6A9A4202D33B6A002B5F
:1044600001D103233AE0FB681B68DB6803F0040317
:10447000002B23D0BB68802B20D0BB68402B1DD0E5
:10448000FB681B681B6803F00803082B16D1002388
:104490007B61FB681B681B687B61FB681B685B6852
:1044A0007B617B69F86800F056F8FB6808225A6463
:1044B000FB68002283F8402001230FE0FB681B68A3
:1044C0001A68BB681340BA689A420CBF01230023E4
:1044D000DBB21A46FB799A42B4D00023184618374B
:1044E000BD4680BD80B485B000AFF860B9601346AA
:1044F000FB80FB68BA689A62FB68FA889A85FB6859
:10450000FA88DA85FB6800225A64FB68222283F865
:104510004220FB681B69002B07D0FB681B68DA6828
:10452000FB681B6842F48072DA60FB681B685A699A
:10453000FB681B6842F001025A61FB681B68DA687D
:10454000FB681B6842F02002DA600023184614372B
:10455000BD4680BC704780B495B000AF78607B6882
:104560001B680C337B637B6B53E8003F3B633B6B07
:1045700023F49073FB647B681B680C33FA6C3A6419
:10458000FB63F96B3A6C41E80023BB63BB6B002B08
:10459000E5D17B681B6814333B623B6A53E8003FFC
:1045A000FB61FB6923F00103BB647B681B68143368
:1045B000BA6CFA62BB62B96AFA6A41E800237B62AC
:1045C0007B6A002BE5D17B681B6B012B19D17B68C3
:1045D0001B680C33FB60FB6853E8003FBB60BB68A3
:1045E00023F010037B647B681B680C337A6CBA6120
:1045F0007B617969BA6941E800233B613B69002B23
:10460000E5D17B68202283F842207B6800221A6370
:1046100000BF5437BD4680BC704780B584B000AF42
:1046200078607B685B6AFB60FB680022DA85FB6868
:104630000022DA84F868FFF7E8FE00BF1037BD46B5
:1046400080BD80B485B000AF78607B6893F841305E
:10465000DBB2212B3ED17B689B68B3F5805F14D120
:104660007B681B69002B10D17B681B6AFB60FB68B1
:104670001B881A467B681B68C2F308025A607B6875
:104680001B6A9A1C7B681A6208E07B681B6A591CCB
:104690007A6811621A787B681B685A607B68DB8CC9
:1046A0009BB2013B9BB27A681946D184002B0FD193
:1046B0007B681B68DA687B681B6822F08002DA601E
:1046C0007B681B68DA687B681B6842F04002DA602E
:1046D000002300E0022318461437BD4680BC704713
:1046E00080B582B000AF78607B681B68DA687B6851
:1046F0001B6822F04002DA607B68202283F84120A8
:104700007868FFF779FE002318460837BD4680BD5C
:1047100080B58CB000AF78607B6893F84230DBB234
:10472000222B40F0AE807B689B68B3F5805F17D189
:104730007B681B69002B13D10023FB627B689B6A9B
:10474000BB627B681B685B689BB2C3F308039AB2C9
:10475000BB6A1A807B689B6A9A1C7B689A6226E017
:104760007B689B6AFB620023BB627B689B68B3F536
:10477000805F07D07B689B68002B0AD17B681B6930
:10478000002B06D17B681B685B68DAB2FB6A1A7083
:1047900008E07B681B685B68DBB203F07F03DAB27A
:1047A000FB6A1A707B689B6A5A1C7B689A627B68FA
:1047B000DB8D9BB2013B9BB27A681946D185002BF9
:1047C0005DD17B681B68DA687B681B6822F0200279
:1047D000DA607B681B68DA687B681B6822F4807289
:1047E000DA607B681B685A697B681B6822F00102EB
:1047F0005A617B68202283F842207B6800225A633A
:104800007B681B6B012B35D17B6800221A637B68A8
:104810001B680C337B617B6953E8003F3B613B695C
:1048200023F010037B627B681B680C337A6A3A6260
:10483000FB61F9693A6A41E80023BB61BB69002B5F
:10484000E5D17B681B681B6803F01003102B0AD1AD
:104850000023FB607B681B681B68FB607B681B6830
:104860005B68FB60FB687B689B8D19467868FFF787
:10487000D5FD02E07868FCF73FFE002302E000234C
:1048800000E0022318463037BD4680BD80B584B0B5
:1048900000AF78607B681B681B6923F440517B681C
:1048A000DA687B681B680A431A617B689A687B68D0
:1048B0001B691A437B685B691343BB607B681B6899
:1048C000DB6823F4B05323F00C037A681268B968EC
:1048D0000B43D3607B681B685B6923F440717B6882
:1048E0009A697B681B680A435A617B681B682C4A7B
:1048F000934203D1FFF7BCF9F86002E0FFF7A4F997
:10490000F860FA6813469B0013449A001A447B68C7
:104910005B689B00B2FBF3F3224AA2FB03235B0913
:104920001901FA6813469B0013449A001A447B68E5
:104930005B689B00B2FBF3F21A4BA3FB02035B091B
:10494000642000FB03F3D31A1B013233154AA2FB88
:1049500003235B0903F0F0031944FA6813469B0034
:1049600013449A001A447B685B689B00B2FBF3F225
:104970000C4BA3FB02035B09642000FB03F3D31A77
:104980001B013233074AA2FB03235B0903F00F022A
:104990007B681B680A449A6000BF1037BD4680BD23
:1049A000003801401F85EB51002B2DE9F0471D46D3
:1049B000BBBF03F100431D4600232D2388B01446DE
:1049C000B8BF1446129A109E1370149BDDF84CA0C9
:1049D00023F02008B8F1460F05D0B8F1450F00D1FB
:1049E0000136022300E0032307AA049206AACDE9B8
:1049F00002A2CDE9003622462B4601F0E1F8B8F1DB
:104A0000470F074619D1119BDB070ED500EB0609AE
:104A10000022002320462946FBF7D0FF08B1CDF83D
:104A20001C903022079B4B451ED33846079B159A96
:104A3000DB1B136008B0BDE8F087B8F1460F00EB50
:104A40000609E5D10378302B0AD100220023204645
:104A50002946FBF7B3FF18B9C6F10106CAF8006092
:104A6000DAF800309944D3E7591C07911A70D9E756
:104A7000F7B50029B6BF2D232B234942092902701F
:104A8000437029DD0DF107031D460A27B1FBF7F638
:104A90001A4607FB1614303402F8014C0C46632CFE
:104AA000314603F1FF33F1DC3031941E03F8011C71
:104AB0002346411CAB420AD30DF109039B1AAC42B9
:104AC00088BF002302330344181A03B0F0BD13F863
:104AD000016B01F8016FEDE7302330318370C17055
:104AE000031DF1E72DE9F04F91B00C46DDF8688029
:104AF00016461F46054600F051FF03681846089306
:104B0000FBF730FB00230E93D8F8003009900733F1
:104B100023F0070303F1080294F818A0D4F800B0BA
:104B2000C8F80020D3E9008929F000430B93CDF8A1
:104B300028804FF0FF32DDE90A01C4E912899C4B5D
:104B4000FBF76EFF70BBDDE90A014FF0FF32984BB7
:104B5000FBF748FF30BB0022002340464946FBF7E5
:104B600037FF10B12D2384F84330924A924BBAF1AB
:104B7000470F94BF9046984603234FF000092361E6
:104B80002BF00403236033462146284600970FAAE2
:104B900000F0D4F9013040F090804FF0FF3011B0B8
:104BA000BDE8F08F42464B4640464946FBF738FF8A
:104BB00048B14B46002BB8BF2D23804AB8BF84F8BC
:104BC00043307F4BD3E763680AF0DF015A1C3FD1C3
:104BD0000623636000224BF48063236006920EAAD2
:104BE000CDE904A20DAA03920DF13302CDE9013201
:104BF00063684246009328464B460A91FFF7D4FE6D
:104C00000A99804647290D9928D1C81C02DB6368A0
:104C1000994240DDAAF1020A5FFA8AFA5246013946
:104C200004F150000D91FFF723FF0E9A81461318EF
:104C3000012A236102DC2268D20701D501332361F6
:104C40009DF83330002B9ED02D2384F843309AE713
:104C50004729BFD1002BBDD10123BAE7BAF1650FB7
:104C6000DCD9BAF1660F18D1002963680BDD216128
:104C700013B92268D00702D501330B4423614FF0EA
:104C80000009A165DCE713B92268D20701D5023318
:104C9000F4E70123F2E74FF0670A0E9B994205DB28
:104CA00023682161D807EAD54B1CE7E70029CCBF70
:104CB0000122C1F102021344E0E723685A0507D438
:104CC0002369424631462846B84701302BD164E774
:104CD000BAF1650F40F2DC80D4E912010022002312
:104CE000FBF76CFE002833D0012331462846354AB5
:104CF000B84701303FF451AFDDE90D38434502DBE1
:104D00002368D8070FD5DDE9082331462846B84780
:104D100001303FF442AF4FF0000908F1FF3804F1D1
:104D20001A0AC84509DC23689B0700F10281E06884
:104D30000F9B9842B8BF184631E7012352463146CF
:104D40002846B84701303FF428AF09F10109E8E7E8
:104D50000D9B002B38DC012331462846194AB84701
:104D600001303FF41AAFDDE90D3959EA030302D1EE
:104D70002368D907D7D5DDE9082331462846B84747
:104D800001303FF40AAF4FF0000A04F11A0B0D9BFB
:104D90005B42534501DC4B4693E701235A463146BB
:104DA0002846B84701303FF4F8AE0AF1010AEEE7B1
:104DB000FFFFEF7F069D00080A9D00080E9D00087A
:104DC000129D0008A0A00008A36DDDF838A053458F
:104DD000A8BF5346002B994636DC4FF0000B29EA5A
:104DE000E97904F11A02A36D0A93A3EB09035B4569
:104DF00031DC0D9B9A453ADC2368DA0737D40D9BEA
:104E0000AAEB03090A9BAAEB03039945A8BF99469D
:104E1000B9F1000F33DC4FF0000829EAE97904F119
:104E20001A0B0D9BAAEB0303A3EB090343457FF782
:104E30007AAF01235A4631462846B84701303FF43D
:104E4000ACAE08F10108ECE7424631462846B847C7
:104E50000130C2D1A1E60123314628460A92B84763
:104E600001303FF49AAE0A9A0BF1010BBBE73146D1
:104E7000DDE908232846B8470130C0D18DE60A9AFB
:104E80004B46314628464244B8470130C3D184E6F8
:104E9000DDF838A0BAF1010F01DCDB0736D50123BC
:104EA000424631462846B84701303FF476AEDDE948
:104EB000082331462846B84701303FF46EAED4E9A6
:104EC0001201002200230AF1FF3AFBF777FDC0B977
:104ED000534608F1010231462846B84701300CD14B
:104EE0005BE601235A4631462846B84701303FF475
:104EF00054AE08F10108D045F3DB4B4604F15002F3
:104F0000E0E64FF0000804F11A0BF4E701234246F3
:104F1000E1E701234A4631462846B84701303FF4CD
:104F20003CAE08F10108E3680F995B1A4345F0DCD9
:104F3000FDE64FF0000804F11909F4E72DE9F04708
:104F4000164698468A680B6907469342B8BF1346CF
:104F5000336091F843200C46DDF820900AB101330C
:104F600033602368990642BF336802333360256893
:104F700015F0060506D104F1190AE36832689B1A98
:104F8000AB422BDC94F843302268003B18BF01236E
:104F9000920630D44146384604F14302C8470130F6
:104FA00023D02368226903F00603042B14BF0025D5
:104FB00033684FF0000608BFE56804F11A0408BF23
:104FC000ED1A54F8123C08BF25EAE5759342C4BFB8
:104FD0009B1AED18B5421AD1002008E00123524671
:104FE00041463846C847013003D14FF0FF30BDE895
:104FF000F0870135C1E73020E11881F843005A1CE1
:1050000094F845102244023382F84310C2E701238A
:10501000224641463846C8470130E6D00136D9E736
:105020002DE9FF470F7E9146782F80460C469A4621
:105030000C9E01F1430207D8622F0AD8002F00F01E
:10504000D380582F00F0BA8004F1420684F84270F1
:105050003AE0A7F16303152BF6D801A151F823F02C
:10506000B9500008CD5000084950000849500008C8
:105070004950000849500008CD5000084950000828
:10508000495000084950000849500008CF51000815
:10509000F75000088951000849500008495000089D
:1050A000F151000849500008F75000084950000825
:1050B000495000089151000833681A1D1B6832607E
:1050C00004F1420684F8423001239EE033682068F0
:1050D000191D3160060601D51D6803E04506FBD5A4
:1050E000B3F90050002D03DA2D236D4284F84330CC
:1050F0000A23594811E021683368080653F8045B15
:1051000002D4490648BFADB26F2F336014BF0A23E3
:1051100008235148002184F843106668002EA8BF78
:105120002168A660A4BF21F0040121600DB9002E02
:105130004BD01646B5FBF3F103FB1157C75D06F8DC
:10514000017D2F46BB420D46F4D9082B0BD12368B5
:10515000DF0708D5236961689942DEBF302306F86E
:10516000013C06F1FF36921B22614B462146404628
:10517000CDF800A003AAFFF7E1FE01304AD14FF0BD
:10518000FF3004B0BDE8F087236843F020032360BC
:105190007827324884F84570236831681F0651F833
:1051A000045B02D45F0648BFADB23160D90744BF8B
:1051B00043F0200323601DB11023ABE72648E9E745
:1051C000236823F020032360F6E71646BDE7336823
:1051D0002568181D616930602E061B6801D51960AD
:1051E00002E06806FBD51980002316462361BCE760
:1051F000336800211A1D32601E686268304600F074
:1052000044FC08B1801B606063682361002384F85C
:105210004330AAE73246494640462369D047013029
:10522000ADD023689B0713D4E068039B9842B8BFB6
:105230001846A6E70123324649464046D04701308A
:105240009DD00135E36803995B1AAB42F2DCEBE7D2
:10525000002504F11906F5E7169D0008279D0008B2
:105260002DE9F04F87B003938B6817465A1EB2F5AD
:10527000AE7F82BF6FF4AE7503EB050B40F25D139A
:105280000A464FF0000588BF8B600B68804643F4E8
:10529000F06342F81C3B0C4698BF4FF0000B1646DB
:1052A000AA46A946CDE9045501920295A26852B1D9
:1052B0003B681B784E2B65D8402B3DD8A3F12B01C2
:1052C000C8B20E283BD9B9F1000F03D0236823F4EC
:1052D000807323600AF1FF3ABAF1010F00F21881DE
:1052E000019B9E4200F20981012007B0BDE8F08FCA
:1052F000A3F161020D2AE6D801A151F822F000BF06
:1053000047540008C7520008C7520008C752000897
:10531000A75400087F540008C7520008C75200086D
:1053200055540008C7520008C7520008C752000869
:10533000C75200080D540008A3F14102DAE70E2914
:10534000C1D801A050F821F0FD530008C752000851
:10535000FD53000893540008C7520008A5530008E5
:10536000E3530008E3530008E3530008E353000845
:10537000E3530008E3530008E3530008E353000835
:10538000E35300086E2B09D8602BB1D8542B7BD087
:10539000592B98D1072D96D108252CE0742B73D06A
:1053A000792BF6E72168C8051BD521F08001216023
:1053B00009F10109BBF1000F03D001320BF1FF3BF2
:1053C000A260A368013BA3602369013323617B686A
:1053D000013B002B7B6040F387803B6801333B60DF
:1053E00064E71AEB05017FF46EAF0D468A4622682A
:1053F00022F4C072226006F8013BE2E72268100640
:105400007FF561AF22F080022260F4E7BAF1000F6D
:105410000ED1B9F1000F0ED1226802F4E061B1F5AE
:10542000E06F08D122F4F0624FF0010A2260E2E757
:10543000BAF1020F55D0012D02D0042D7FF443AFF5
:105440000135EDB2D7E7BAF1010F7FF43CAF4FF071
:10545000020AD0E77DB9B9F1000F7FF437AF2268B7
:1054600002F4E061B1F5E06F40F0038122F4F062F4
:1054700001252260BFE7032DE2D0052DDEE7022DD6
:105480007FF421AF0325B6E7062D7FF41CAF072577
:10549000B1E7226891057FF516AF22F420722260F1
:1054A000CDF80890A7E7226802F4A061B1F5806FFB
:1054B00006D050057FF507AFB9F1000F00F0D98095
:1054C000910558BF029922F4F06258BFA9EB01017F
:1054D00042F4C0724FF0000958BFCDE904162260B3
:1054E00089E74FF0030A86E739464046D4F8803111
:1054F000984700283FF4DAAEE5E6D4F87C313A4626
:10550000404616F8011D98472369013B2361E7E6F1
:105510006B1E062B24D8022D36D8019B9E427FF6A7
:10552000E3AED4F87C313A46404616F8011D984760
:105530002369013B2361F0E7D4F87C313A464046C9
:105540001BF8011D98472369013B23610AF1FF3ACB
:105550005FFA8AFABAF1020FEED1033DEDB2761B83
:105560002368DA0530D55B0511D5019B9E427FF695
:10557000BBAED4F87C313A46404616F8011D984738
:105580002369013B2361F0E7AA46B346DEE716F83C
:10559000011C2369652903F1FF3306F1FF352361FF
:1055A0000CD045290AD0D4F87C313A464046984779
:1055B000236916F8021C013BB51E23613A4640469A
:1055C000D4F87C3198472E46226812F0100201D0A0
:1055D00000208AE63270236803F4C063B3F5806F5D
:1055E0001CD1029B4B45A3EB090223D1002240466C
:1055F000019902F04DFC039B25681B6815F0020F12
:1056000006460F4603F104021FD003990A601B6887
:10561000C3E90067E3680133E360D9E7049B002B2B
:10562000E4D005990A234046013102F0B1FC049B05
:10563000059EC21A04F26F139E4228BF04F5B77686
:1056400030460D4900F012F9D0E76D07DDD4039D17
:105650002A601D6802460B46FBF7E2F920B10748B5
:1056600000F022FA2860D5E730463946FBF736FAD3
:10567000F8E74FF000092DE6389D0008E8A0000883
:10568000002310B50446C0E90033C0E90433836049
:1056900081814366C2818361194608225C3000F033
:1056A00074F90D4B246263620C4BA3620C4BE362F2
:1056B0000C4B23630C4B9C4206D003F168029442CE
:1056C00002D0D0339C4205D104F15800BDE810400F
:1056D00000F0D8B910BD00BF0159000827590008D3
:1056E0005F59000883590008D4020020024A034988
:1056F000034800F069B800BF2C0000207189000841
:105700003C00002041680C4B10B59942044601D082
:1057100003F02EF9A168094B994202D0204603F00C
:1057200027F9E168064B994204D02046BDE81040B5
:1057300003F01EB910BD00BFD40200203C030020BE
:10574000A403002010B50B4B0B4C0C4A20461A60EA
:1057500004210022FFF794FF04F1680001220921CF
:10576000FFF78EFF04F1D0000222BDE810401221A5
:10577000FFF786BF0C040020D4020020ED5600087D
:10578000014800F080B900BF15040020014800F076
:105790007BB900BF1504002010B50446FFF7F0FFE9
:1057A000236A1BB1BDE81040FFF7F0BF044B236232
:1057B000044B1B68002BF5D1FFF7C4FFF2E700BFD5
:1057C000055700080C0400202DE9F84307468846D9
:1057D00014460026D4E90195B9F1010905D52468DC
:1057E000002CF7D13046BDE8F883AB89012B07D9EF
:1057F000B5F90E30013303D029463846C047064379
:105800006835E9E70CB430B5174B0C1E1D689DB028
:1058100008DA8B234FF0FF302B601DB0BDE830401D
:1058200002B070474FF40273ADF814300CBF23463A
:1058300004F1FF33049307934FF6FF730290069031
:10584000ADF81630284621AB209A02A9019302F048
:10585000FDFB431CBCBF8B232B60002CDDD0002242
:10586000029B1A70D9E700BF380000200EB46FF019
:10587000004100B59CB01DAB0290069007910491C9
:105880000848094953F8042B0591006802A90193BF
:1058900002F0DCFB0022029B1A701CB05DF804EBE6
:1058A00003B07047380000200802FFFF0EB44FF429
:1058B000017230B59CB01FAC54F8045BADF81420F5
:1058C00002900690FAF74EFC0B4B03900B930023CB
:1058D0000F9314934FF6FF7307900848ADF81630F6
:1058E0002A46234602A90068019402F003FD1CB079
:1058F000BDE8304003B0704723590008380000204D
:1059000010B50C46B1F90E1000F06EF80028ABBFD0
:10591000636DA3891B1823F48053ACBF6365A38117
:1059200010BD002070472DE9F0411F468B890546C8
:10593000DB050C46164605D502230022B1F90E10F0
:1059400000F040F8A389324623F48053A38128460F
:105950003B46B4F90E10BDE8F04100F057B810B561
:105960000C46B1F90E1000F02DF8431CA38915BFA9
:10597000606523F4805343F48053A38118BFA3814F
:1059800010BDB1F90E1000F00DB803460244934269
:1059900000D1704703F8011BF9E700000048704789
:1059A0007801002038B50023054D044608462B60D9
:1059B000FCF7E3FA431C02D12B6803B1236038BD26
:1059C0001004002038B50446084611460022054D53
:1059D0002A601A46FCF7F5FA431C02D12B6803B182
:1059E000236038BD1004002038B50446084611462F
:1059F0000022054D2A601A46FCF786FA431C02D1A4
:105A00002B6803B1236038BD1004002038B504466C
:105A1000084611460022054D2A601A46FCF791FA05
:105A2000431C02D12B6803B1236038BD1004002051
:105A3000014B1868704700BF3800002070B5002681
:105A40000C4D0D4C641BA410A64209D103F0A4FF19
:105A500000260A4D0A4C641BA410A64205D170BD55
:105A600055F8043B98470136EEE755F8043B984754
:105A70000136F2E754A1000854A1000854A100081F
:105A800058A10008704770477047034610B5C9B267
:105A900002449342184601D1002003E00478013308
:105AA0008C42F6D110BD0000004870470000C07F56
:105AB0002DE9F74F03690C690746A3427EDB013CE1
:105AC000A30000F1140501F11408009305EB840311
:105AD000019358F8243055F8242001339A42B2FB40
