:020000040800F2
:10000000005000203DDA00082DC300082FC300086F
:1000100031C3000833C3000835C3000800000000E6
:1000200000000000000000000000000037C30008CE
:1000300039C30008000000003BC300083DC30008AE
:1000400085DA000885DA000885DA000885DA000814
:1000500085DA000885DA000885DA000885DA000804
:1000600085DA000885DA000885DA000885DA0008F4
:1000700085DA000885DA000885DA000885DA0008E4
:1000800085DA000885DA000885DA000885DA0008D4
:1000900085DA000841C3000885DA000885DA00081F
:1000A00085DA000885DA000885DA000885DA0008B4
:1000B00085DA000885DA000885DA000885DA0008A4
:1000C00085DA000885DA000885DA000885DA000894
:1000D00085DA00084DC3000885DA000885DA0008D3
:1000E00085DA000885DA000885DA000800000000DB
:1000F0000000000000000000000000000000000000
:0C01000000000000000000005FF808F1A3
:1001100081F0004102E000BF83F0004330B54FEAB8
:1001200041044FEA430594EA050F08BF90EA020F25
:100130001FBF54EA000C55EA020C7FEA645C7FEAB8
:10014000655C00F0E2804FEA5454D4EB5555B8BFDB
:100150006D420CDD2C4480EA020281EA030382EA4C
:10016000000083EA010180EA020281EA0303362DDE
:1001700088BF30BD11F0004F4FEA01314FF4801CB1
:100180004CEA113102D0404261EB410113F0004FC3
:100190004FEA03334CEA133302D0524263EB43037A
:1001A00094EA050F00F0A780A4F10104D5F1200E18
:1001B0000DDB02FA0EFC22FA05F2801841F1000173
:1001C00003FA0EF2801843FA05F359410EE0A5F147
:1001D00020050EF1200E012A03FA0EFC28BF4CF078
:1001E000020C43FA05F3C01851EBE37101F000452E
:1001F00007D54FF0000EDCF1000C7EEB00006EEB3B
:100200000101B1F5801F1BD3B1F5001F0CD34908C4
:100210005FEA30004FEA3C0C04F101044FEA44521B
:1002200012F5800F80F09A80BCF1004F08BF5FEAA2
:10023000500C50F1000041EB045141EA050130BD82
:100240005FEA4C0C404141EB0101013C28BFB1F594
:10025000801FE9D291F0000F04BF01460020B1FADF
:1002600081F308BF2033A3F10B03B3F120020CDAB2
:100270000C3208DD02F1140CC2F10C0201FA0CF090
:1002800021FA02F10CE002F11402D8BFC2F1200CF5
:1002900001FA02F120FA0CFCDCBF41EA0C019040AB
:1002A000E41AA2BF01EB0451294330BD6FEA0404F4
:1002B0001F3C1CDA0C340EDC04F11404C4F12002DF
:1002C00020FA04F001FA02F340EA030021FA04F3F1
:1002D00045EA030130BDC4F10C04C4F1200220FA48
:1002E00002F001FA04F340EA0300294630BD21FA86
:1002F00004F0294630BD94F0000F83F4801306BF4C
:1003000081F480110134013D4EE77FEA645C18BF3F
:100310007FEA655C29D094EA050F08BF90EA020FD6
:1003200005D054EA000C04BF1946104630BD91EACE
:10033000030F1EBF0021002030BD5FEA545C05D1D1
:100340004000494128BF41F0004130BD14F5800410
:100350003CBF01F5801130BD01F0004545F0FE4184
:1003600041F470014FF0000030BD7FEA645C1ABFB9
:10037000194610467FEA655C1CBF0B46024650EAF0
:10038000013406BF52EA033591EA030F41F400211C
:1003900030BD00BF90F0000F04BF0021704730B5A2
:1003A0004FF4806404F132044FF000054FF0000177
:1003B00050E700BF90F0000F04BF0021704730B538
:1003C0004FF4806404F1320410F0004548BF40420D
:1003D0004FF000013EE700BF42004FEAE2014FEA62
:1003E00031014FEA02701FBF12F07F4393F07F4F3D
:1003F00081F06051704732F07F4208BF704793F040
:100400007F4F04BF41F40021704730B54FF4607452
:1004100001F0004521F000411CE700BF50EA010255
:1004200008BF704730B54FF000050AE050EA0102FE
:1004300008BF704730B511F0004502D5404261EB6E
:1004400041014FF4806404F132045FEA915C3FF4AF
:10045000D8AE4FF003025FEADC0C18BF03325FEA4C
:10046000DC0C18BF033202EBDC02C2F1200300FAFD
:1004700003FC20FA02F001FA03FE40EA0E0021FA22
:1004800002F11444BDE600BF80F0004002E000BF6E
:1004900081F0004142001FBF5FEA410392EA030F6F
:1004A0007FEA226C7FEA236C6AD04FEA1262D2EBB9
:1004B0001363C1BFD218414048404140B8BF5B42BE
:1004C000192B88BF704710F0004F40F4000020F057
:1004D0007F4018BF404211F0004F41F4000121F06D
:1004E0007F4118BF494292EA030F3FD0A2F10102B7
:1004F00041FA03FC10EB0C00C3F1200301FA03F1F5
:1005000000F0004302D5494260EB4000B0F5000F17
:1005100013D3B0F1807F06D340084FEA310102F1D6
:100520000102FE2A51D2B1F1004F40EBC25008BF88
:1005300020F0010040EA03007047490040EB000052
:10054000013A28BFB0F5000FEDD2B0FA80FCACF153
:10055000080CB2EB0C0200FA0CF0AABF00EBC25080
:1005600052421843BCBFD0401843704792F0000F6E
:1005700081F4000106BF80F400000132013BB5E7C1
:100580004FEA41037FEA226C18BF7FEA236C21D037
:1005900092EA030F04D092F0000F08BF084670479C
:1005A00090EA010F1CBF0020704712F07F4F04D16A
:1005B000400028BF40F00040704712F100723CBF7D
:1005C00000F50000704700F0004343F0FE4040F4A7
:1005D000000070477FEA226216BF08467FEA236365
:1005E0000146420206BF5FEA412390EA010F40F450
:1005F000800070474FF0000304E000BF10F000439C
:1006000048BF40425FEA000C08BF704743F0964382
:1006100001464FF000001CE050EA010208BF70479D
:100620004FF000030AE000BF50EA010208BF704724
:1006300011F0004302D5404261EB41015FEA010C39
:1006400002BF84460146002043F0B64308BFA3F131
:100650008053A3F50003BCFA8CF2083AA3EBC25313
:1006600010DB01FA02FC634400FA02FCC2F1200232
:10067000BCF1004F20FA02F243EB020008BF20F069
:100680000100704702F1200201FA02FCC2F12002CF
:1006900050EA4C0021FA02F243EB020008BF20EAC4
:1006A000DC7070474FF0FF0C1CEAD0521EBF1CEAF2
:1006B000D15392EA0C0F93EA0C0F6FD01A4480EAE0
:1006C000010C400218BF5FEA41211ED04FF00063C9
:1006D00043EA501043EA5111A0FB01310CF00040F5
:1006E000B1F5000F3EBF490041EAD3715B0040EA1B
:1006F000010062F17F02FD2A1DD8B3F1004F40EBEB
:10070000C25008BF20F00100704790F0000F0CF0BD
:10071000004C08BF49024CEA502040EA51207F3A81
:10072000C2BFD2F1FF0340EAC250704740F400005C
:100730004FF00003013A5DDC12F1190FDCBF00F04D
:1007400000407047C2F10002410021FA02F1C2F1FB
:10075000200200FA02FC5FEA310040F1000053EA97
:100760004C0308BF20EADC70704792F0000F00F0E5
:10077000004C02BF400010F4000F013AF9D040EAEB
:100780000C0093F0000F01F0004C02BF490011F47F
:10079000000F013BF9D041EA0C018FE70CEAD1537D
:1007A00092EA0C0F18BF93EA0C0F0AD030F0004CFD
:1007B00018BF31F0004CD8D180EA010000F00040B1
:1007C000704790F0000F17BF90F0004F084691F06F
:1007D000000F91F0004F14D092EA0C0F01D14202A9
:1007E0000FD193EA0C0F03D14B0218BF084608D172
:1007F00080EA010000F0004040F0FE4040F40000BC
:10080000704740F0FE4040F4400070474FF0FF0C4E
:100810001CEAD0521EBF1CEAD15392EA0C0F93EA95
:100820000C0F69D0A2EB030280EA010C49024FEAE7
:10083000402037D04FF0805343EA111143EA1013A0
:100840000CF000408B4238BF5B0042F17D024FF458
:10085000000C8B4224BF5B1A40EA0C00B3EB510F33
:1008600024BFA3EB510340EA5C00B3EB910F24BF1C
:10087000A3EB910340EA9C00B3EBD10F24BFA3EBA1
:10088000D10340EADC001B0118BF5FEA1C1CE0D169
:10089000FD2A3FF650AF8B4240EBC25008BF20F01C
:1008A000010070470CF0004C4CEA50207F32C2BF70
:1008B000D2F1FF0340EAC250704740F400004FF00D
:1008C0000003013A37E792F0000F00F0004C02BF3E
:1008D000400010F4000F013AF9D040EA0C0093F008
:1008E000000F01F0004C02BF490011F4000F013B62
:1008F000F9D041EA0C0195E70CEAD15392EA0C0FCA
:1009000008D142027FF47DAF93EA0C0F7FF470AF01
:10091000084676E793EA0C0F04D14B023FF44CAF44
:1009200008466EE730F0004C18BF31F0004CCAD1D9
:1009300030F000427FF45CAF31F000437FF43CAF15
:100940005FE700BF4FF0FF3C06E000BF4FF0010C37
:1009500002E000BF4FF0010C4DF804CD4FEA400219
:100960004FEA41037FEA226C18BF7FEA236C11D063
:1009700001B052EA530C18BF90EA010F58BFB2EB16
:10098000030088BFC81738BF6FEAE17018BF40F096
:10099000010070477FEA226C02D15FEA402C05D14A
:1009A0007FEA236CE4D15FEA412CE1D05DF8040BCF
:1009B000704700BF844608466146FFE70FB5FFF762
:1009C000C9FF002848BF10F1000F0FBD4DF808ED1A
:1009D000FFF7F4FF0CBF012000205DF808FB00BF0B
:1009E0004DF808EDFFF7EAFF34BF012000205DF865
:1009F00008FB00BF4DF808EDFFF7E0FF94BF0120B2
:100A000000205DF808FB00BF4DF808EDFFF7D2FFAE
:100A100094BF012000205DF808FB00BF4DF808EDF1
:100A2000FFF7C8FF34BF012000205DF808FB00BFBE
:100A30004FEA4002B2F1FE4F0FD34FF09E03B3EBEB
:100A400012620DD94FEA002343F0004310F0004F2B
:100A500023FA02F018BF404270474FF00000704781
:100A600012F1610F01D1420205D110F0004008BF20
:100A70006FF0004070474FF00000704770B5860778
:100A800047D0541E002A3ED00346CAB201E0013CC2
:100A900039D303F8012B9D07F9D1032C2CD9CDB202
:100AA00005EB05250F2C1A4605EB054534D9A4F1B5
:100AB000100C2CF00F0603F1100EB6444FEA1C1C6C
:100AC000C2E90055C2E9025510327245F8D10CF165
:100AD000010214F00C0F03EB021204F00F0C13D000
:100AE000ACF1040323F003030433134442F8045B22
:100AF0009342FBD10CF003042CB1C9B21C4403F89F
:100B0000011BA342FBD170BD64461346002CF4D1F7
:100B1000F9E703461446C0E7A446E1E70EB44FF4F4
:100B20000172F0B500269CB021AD55F8047BADF8FC
:100B300014201B960290069001F056FD4FF6FF72AE
:100B400004460A4B0A49ADF816200A933A462B464A
:100B5000086802A90E96139601950394079400F075
:100B600019F91CB0BDE8F04003B07047C12100087E
:100B7000000000200CB44FF401732DE9F041002671
:100B80009CB022AD0746084655F8048BADF81430EA
:100B9000029106911B9601F027FD4FF6FF73044664
:100BA0000949ADF816300A91424638462B4602A94B
:100BB0000E96139601950394079400F0EBF81CB081
:100BC000BDE8F04102B07047C121000880EA010C85
:100BD0001CF0030F37D110F0030C20F0030021F0BC
:100BE000030150F8042B08BF51F8043B0ED08CF0E1
:100BF000030C6FF07F434FEACC0C23FA0CFC51F846
:100C0000043B42EA0C0243EA0C0300BFA2F1013CA0
:100C10009A4201BF2CEA020C1CF0803F50F8042BD2
:100C200051F8043BF2D04FEA02604FEA1222012849
:100C300028BFB0EB036F08BF1B0AF4D003F0FF031B
:100C4000000EC01A704710F0030F0AD010F8012BE5
:100C500011F8013B012A28BF9A42F4D0A2EB03000D
:100C600070474DF8045D50F8042B01F0030521F0A6
:100C7000030151F8043B022D26D04DD822F07F45C8
:100C8000B5EB132FA2F1013C2CEA020C0DD11CF0A4
:100C9000803C08BF51F8043B0AD185EA0205B5EB58
:100CA000036F0CD150F8042BE8E74FEA13235BE005
:100CB0003CF07F4C54D10B784FEA126554E04FEA78
:100CC000126503F0FF034FE04FEA0245A2F1013C39
:100CD0004FEA15452CEA020CB5EB134F18D11CF066
:100CE000803C08BF51F8043B07D185EA0205B5EB0B
:100CF000034F09D150F8042BE6E75FEA0C4C2FD1E3
:100D00000B884FEA12452FE04FEA03434FEA1245A2
:100D10004FEA134328E000BF02F0FF05B5EB136F65
:100D2000A2F1013C2CEA020C0DD11CF0803C08BF62
:100D300051F8043B0AD185EA0205B5EB032F0AD12D
:100D400050F8042BE8E74FEA13630DE012F0FF0FB1
:100D500006D051F8043B4FEA122523F07F4303E00D
:100D60004FF0000020BC704705F0FF0203F0FF00C9
:100D7000012828BF904204BF2D0A1B0AF4D0A2EB21
:100D8000000020BC704700BF014B1868704700BFCF
:100D9000000000202DE9F04F8946B1F90C10804683
:100DA000ADF52F7D88040693D9F8643007D441F45B
:100DB000005123F40053A9F80C10C9F86430C3F3B0
:100DC00040319B0400F1BF80164616F8013B119399
:100DD000002B00F0F2868E468B46DFF8C4A10A9104
:100DE0000491039107911AF8034014F008046FD19D
:100DF000252B5DD122463178A1F12503701C532BA0
:100E000061D8DFE813F0540060006000600060000B
:100E1000440460006000600060006000A400A40062
:100E2000A400A400A400A400A400A400A400A400A2
:100E300060006000600060006000600060006000B2
:100E4000600060004004AF006000AF006000600020
:100E500060006000D10360006000D90360006000A2
:100E6000600060006000600060006000840360005B
:100E70006000E203600060006000600060006000ED
:100E80006000F203F703AF00AF00AF00FE030704FA
:100E900060006000AD036000B8037106CD03600020
:100EA0006000AA03600073066000600084030646C9
:100EB000D9F80430002B3ADDD9F8003016F8012CAF
:100EC0001978914220D003980DF52F7DBDE8F08F61
:100ED000D9F804200EE0D9F800301A7801331AF856
:100EE000022017070ED5D9F804200BF1010B013AA7
:100EF000C9E90032002AEEDC4946404601F0E0FB39
:100F00000028E8D002960AE00133C9F80030D9F889
:100F100004300296013B0BF1010BC9F80430029E2C
:100F200016F8013B1193002B7FF45DAFCBE74946E8
:100F3000404601F0C5FB0028BED0039B1BB1B9F8A9
:100F40000C305B06BFD54FF0FF330393BBE714F0C3
:100F50008F0FB8D102EB820201EB4202303A717876
:100F6000064649E704250290D9F80430002B00F327
:100F70005D8349464046059201F0A2FB0028DCD182
:100F800014F0400F059A00F051836B1E032B00F202
:100F90009E86DFE813F0AC016801B300070000BFD4
:100FA000ADDA00084046059202F0ECFD059A0368B0
:100FB00044F4F0640C93531EB3F5AE7F40F27C848E
:100FC0006FF4AE71531840F25D120F93002556ABCB
:100FD0002E464946CDE90D55A9460B95CDF8208002
:100FE0001F46A8462546144609930A681078A0F1C2
:100FF0002B0CBCF14E0F50D8DFE81CF032024F0032
:1010000032024F004F007C027800780078007800B0
:10101000780078007800780078004F004F004F008B
:101020004F004F004F004F003802760076007600E8
:1010300016020B024F004F00BC014F004F004F0043
:101040004F0067024F0064024F004F004F005F02E5
:101050004F004F004F004A0245024F004F004F0023
:101060004F004F004F004F003802760076007600A8
:1010700016020B024F004F00BC014F004F004F0003
:101080004F0067024F0064024F004F004F005F02A5
:101090004F004F004F004A0245020C9B93F800C0DE
:1010A000844514D1AB0512D525F42075CDF82C80DC
:1010B000013C07F8010B48680BF1010B01380028CF
:1010C000486040F3F98201320A60002C8DD143461A
:1010D0002C46DDF8208035464E468946002B00F030
:1010E0005D8124F4807459E12B05F0D519EB060CD1
:1010F000EDD16646E14625F4C075D9E7531EB3F538
:10110000AE7F89BF6FF4AE710027571840F25D12B1
:10111000002656AB05971D4617464946D946B346A5
:10112000049E44F458640993086890F800C0ACF138
:101130002B034D2B5FD8DFE813F00A025E000A0292
:101140005E005E00B20217011701170117011701B7
:1011500017011701030203025E005E005E005E00DD
:101160005E005E005E004E004E004E004E004E00DF
:101170004E005E005E005E005E005E005E005E008F
:101180005E005E005E005E005E005E005E005E006F
:101190005E005E00F7015E005E005E005E005E00C5
:1011A0005E005E005E004E004E004E004E004E009F
:1011B0004E005E005E005E005E005E005E005E004F
:1011C0005E005E005E005E005E005E005E005E002F
:1011D0005E005E00F7010A2E0DDD24F4386405F888
:1011E00001CB4B68013B002B4B6040F37182013017
:1011F0000860013F98D104965E46CB468946E105DA
:1012000007D5099B9D4200F2B084099B9D423FF4A3
:101210005AAE14F0100240F06B82049B079F4046C8
:1012200009992A70B847069BA20603F1040700F14A
:101230005982630700F1788414F0010240F0518272
:10124000A40740F14E82B64B079940469942049B51
:10125000099900F00A8502F005FC0B46069A116810
:10126000C1E9000340E2D9F80010002A0B7808BF5A
:101270004FF0FF321AF80330E00704F0100603F0D5
:10128000080300F16B82002E00F02083002B7FF416
:1012900046AED9F804300131013B012AC9F80010EB
:1012A000C9F8043008BF0BF1010B3FF438AE01243C
:1012B000154612E0D9F800301A7801331AF80220E6
:1012C000160712D4C9F80030D9F804300134013BB4
:1012D000A542C9F8043000F05A84002BEADC4946E4
:1012E000404601F0EDF90028E4D0A34417E6002AB7
:1012F00008BF4FF0FF3204F01003E0070B9300F13A
:101300002483D9F800000B99037816ACE35C00291C
:1013100000F08782002B3FF4D6ADD9F804300130BD
:10132000013B012A18BF1646C9F80000C9F804306D
:1013300010D117E0D9F800301A780133A25C8AB1D5
:10134000C9F80030D9F804300135013BAE42C9F884
:10135000043007D0002BEDDC4946404601F0B0F9DF
:101360000028E7D0AB44DAE56E4B24F4386433F957
:10137000166034E7002E40F0C081B8F1000F40F055
:10138000938205F4E06CBCF5E06F00F01F842C46FE
:10139000002335464E468946DDF82080013E012E69
:1013A00040F255846A1E062A40F25383E00540F15C
:1013B000B281610500F1618417F8011C7D1E652969
:1013C0000BF1FF3602D0452940F084834A4640465F
:1013D00001F038F914F0100340F07283B3462B701B
:1013E0000D9B002B40F0AA8300224046099903F090
:1013F0009BFB069BE20706460F4603F1040540F1FE
:1014000047831B68C3E900670695039B0133039379
:1014100085E52B0503D519EB060C3FF46AAE022EC9
:101420007FF455AE032643E62B053FF55FAE05F48A
:10143000A06CBCF5806F05D06B057FF548AEB8F1A8
:10144000000FA4D0AB0504D40B9BA8EB0303CDE99C
:101450000D3725F478654FF0000845F4C07527E690
:101460002B067FF534AE25F0800521E62B0503D54C
:1014700019EB060C3FF43DAEB9F1010F7FF427AE36
:101480004FF0020914E6072E7FF421AE08260FE67E
:1014900005F4186CBCF5807F7FF419AEB8F1010F2C
:1014A0007FF415AE302325F480754FF0000845F425
:1014B0000065013C07F8013BFAE5062E7FF407AE14
:1014C0000726F5E52B05B2D401E6B9F1000F40F08F
:1014D0001B81B8F1000F05D105F4E06CBCF5E06F9D
:1014E00000F06E83012E02D0042E7FF4F0AD0136A1
:1014F000F6B2DDE5EB057FF5F9AD0F9B25F0800534
:1015000008F10108002B40F0D682013CD3E502909F
:1015100044F4007410230493014B0325079323E53F
:10152000E968000888DA000804F4C063B3F5007FB6
:101530007FF461AE24F40074102644F4A0644EE6F7
:10154000824B33F91660082E3FF747AE53E6230669
:101550007FF551AE24F0800441E60225029003E5B8
:1015600025077FF4B0AC71786C2900F0078306463C
:1015700044F0010440E4E70602903FF5D0AC069B3E
:10158000660753F8042B00F1D682E507C2F800B0D5
:1015900004D4A40702D54FEAEB7151600693BEE470
:1015A000029044F40874B5E721077FF48CAC71789D
:1015B00044F0020406461FE4029044F001040823AC
:1015C0000493634B03250793CEE4014616A80592C6
:1015D00002F066FA0125059A44F040040290D9F819
:1015E0000430002B3FF7D1ACC3E40025029044F057
:1015F0004004F4E702900A230493564B0325079313
:10160000B2E423077FF45FAC717844F0040406462B
:10161000FFF7F2BBD9F804300325002B4FF000038D
:1016200004934C4B029007937FF7A3ACD9F80010BA
:101630000B781AF8033018077FF5A7AC16460A4650
:1016400006E0C9F8002013781AF80330190718D5F6
:10165000D9F804300BF1010B013B002BC9F8043021
:1016600002F10102EDDC4946404601F029F800286C
:101670007FF463ACD9F8002013781AF80330190707
:10168000E6D4324681E4029044F00104B3E72243F9
:101690007FF419AC717810240646FFF7ADBB230523
:1016A0007FF59DAD16B9082644F40074620540F13B
:1016B000C58124F4B06492E50898059101F000F822
:1016C000059900287FF403AD002C7FF48EACFEE476
:1016D0004046049100F0F4FF049900283FF489ADDE
:1016E00089E5069B1B681860039B069701330393EB
:1016F000099BED1A3544AB4411E4032E3FF4F7AED9
:10170000052E3FF4F4AEE2E4B9F1020F7FF4EAAE45
:101710004FF00309CCE414F010027FF400AC3A70EF
:1017200004F4C062B2F5806F7FF45AAE0B9A9A420D
:101730003FF45AAED21A0DF2AB239F4228BF0DF2EE
:10174000AA273846044900F02DFF4DE688DA000844
:10175000E9680008691F0008D0E20008002E40F088
:10176000B281069F57F804CB002B51D10025CDE95B
:10177000056764462F46154603F0C8FAB8423FF4A1
:10178000DCABD9E9003113F8010B0139C9E90031AB
:1017900056ABD85509930A9B0137032B14AE02D1DF
:1017A0003368042B04D0082200213046FFF766F985
:1017B000099A3B4621464046009600F03DFD421CFA
:1017C0000A903FF4BAAB002840F0E481206000F0BA
:1017D0002FFD002840F02482BB44013D059B002BD7
:1017E00040F0F9811F460434D9F80430002B40F34F
:1017F0000882D9F800301B781AF803301B0701D48F
:10180000002DB9D1DDE90567A446002E40F0BC816A
:10181000039B0697013303930023CCF80030FFF7B6
:101820007EBB069F57F8041B002B3FF44CAB0E46C3
:10183000D9F80430012A03F1FF33C9F8043000F16C
:101840000103C9F80030037806F8013B23D08D1856
:10185000059111E0D9F800100B78E35C83B3D9F857
:101860000430013BC9F804304B1CC9F800300B7838
:1018700006F8013BAE4223D0D9F80430002BE9DC56
:101880004946404600F01CFF0028E3D00599B142CC
:101890003FF453AB751A039BAB440133039300230E
:1018A00006973370FFF73BBB2C4643463546DDF8C1
:1018B00020804E46894614E400230F93FFF786BB31
:1018C0000599751A002DE6D1FFF7FDBA069F57F866
:1018D000046B34468BBBD9F80430012A03F1FF3383
:1018E000C9F8043001F10103C9F800300B7804F89D
:1018F000013B00F0BF81B51813E0D9F800301A7829
:101900001AF80220100716D4D9F80420013AC9F8B1
:1019100004205A1CC9F800201B7804F8013BAC4293
:1019200009D0D9F80430002BE7DC4946404600F0E6
:10193000C7FE0028E1D0A61BB344039B06970133E2
:10194000039300232370FFF7EABA002B40F0EA80EC
:10195000069B53F8047B0693CDF820B000259346F0
:101960000A9CCDF8148003F0D1F9A8423FF4E5AA0F
:10197000D9E9003213F8011B013AC9F80420032CFD
:1019800056AA5155C9F8003005F101050DF1480876
:1019900003D1D8F80030042B04D00822002140469F
:1019A000FFF76CF839462B460598CDF8008056AA0B
:1019B00000F042FC411C04463FF4BFAA002840F05E
:1019C000C7800646386014AB0822002118460993E8
:1019D000FFF754F83246B34E099BD6F8E0600598FD
:1019E00010A9B047012814BF00269DF8406016AB2F
:1019F0009B5D002B00F0F180089B032C2B44089387
:101A000000F0AD800BF1FF3B0B9B03B90437D9F815
:101A100004300025002B76DDBBF1000FA3D1DDF8EB
:101A200020B0DDF814800A940B9B002B7FF477AA7A
:101A30003B60039B01330393FFF771BA059B24F4CA
:101A4000607413B1013B059301370BF1010BFFF7F4
:101A5000C8BB022D40F22C81032D3FF4A7AC043DFE
:101A6000EEB2F54305943D443C4637461E4614F815
:101A7000011D4A46404600F0E5FDAC42F7D1334631
:101A80003E460BF1FF3B2746ABEB060B059C8DE476
:101A9000069BA2071B6805934AD402460B4609F031
:101AA00013FC002840F0F7803046394609F06AFC04
:101AB000059B1860A8E40F9B013B0F93FFF7FBBA4F
:101AC000B346FFF72CBA002B7FF429AA069F0DF12D
:101AD000440C4BE64A46404600F0B4FDABF102062A
:101AE00017F8021CBD1E71E4029068E50A230493F6
:101AF0006D4B032502900793FFF736BAD9F80430EF
:101B0000002B3FF730AF4946059800F0D9FD00287B
:101B100082D0DDF820B0DDF814800A94002D83D047
:101B2000FFF70BBA11AF17E7069B1B681880DBE5C0
:101B3000C3E9006768E4A2F800B02FE50E9F0A230E
:101B400000224046791C00F00FFA0D9BC21AF2E504
:101B5000821CD3D03E68731C7FF435AF47E7D8F8BA
:101B60000030042B7FF44EAF4EE715F8011C4A46B7
:101B70004046013D00F066FDFFF747BBB17844F0F9
:101B800002040236FFF738B90697FFF7C8B9AB442D
:101B9000FFF7C5B90A9B02333FF426AE206800F078
:101BA00047FB00283CD10A9BBB44032B7FF415AEB6
:101BB0003368042B7FF411AE10E60393FFF783B96B
:101BC0004FF0010925F4F065FFF772BA012625F4FC
:101BD000F065FFF76DBA002706E6DDF820B0DDF806
:101BE00014800A94002D3FF41FAF56AB5C19013DE1
:101BF0004A46404614F8011D00F024FD002DF6D1A0
:101C000012E74946404600F05BFD00283FF4F1AD85
:101C10003D46DDE90567A446002D7FF48EA9F4E575
:101C20003D46DDE90567A446002D3FF4EEAD099C75
:101C3000CDF814C02C44013D4A46404614F8011D1D
:101C400000F000FD002DF6D1DDF814C0DDE5099CA3
:101C5000A7427FF638A917F8011D4A46404600F012
:101C6000F1FCA742F7D1FFF72EB905F063F80B4658
:101C7000FFF7F4BA0BF1010B5FE6099CA7427FF670
:101C800022A917F8011D4A46404600F0DBFCA74296
:101C9000F7D1FFF718B9054801F022FE059B18603F
:101CA000FFF7B2BB34010020E9680008CCE300086C
:101CB000099B9F427FF607A917F8011D4A46404637
:101CC00000F0C0FC099B9F42F6D1FFF7FCB8012A47
:101CD00038BF012204F0100714F00104164615D194
:101CE000002F6CD1069C134654F8041B0122404679
:101CF000CDF8009000F000FD00283FF41EA9039BE2
:101D00008344013306940393FFF709B9002F47D0AA
:101D10000023059300252C460A9DCDF8208002F073
:101D2000F5FFA0423FF409A9D9E9003113F8010BEE
:101D3000013956AA032D105504F10108C9F8041001
:101D4000C9F8003014AC02D12268042A04D0082259
:101D500000212046FEF792FE56AA434605990898B0
:101D6000009400F069FA421C05463FF4E6A80028FA
:101D70003BD1C344013E27B9059B1F60059B04333B
:101D80000593D9F804300024002B3FDD002EC6D186
:101D9000DDF820800A95002F3FF437ABFFF7BFB87E
:101DA000069B53F8042BCDE90523B3E7C9F80010CF
:101DB000404649461C44F61A00F082FC78B9D9E93D
:101DC00000239E4202EB0301F0DC9B1B32443444AF
:101DD000C9F80430C9F80020A344FFF7A0B8002CCC
:101DE0003FF4ABA8A344FFF79AB8831C09D003289B
:101DF000C34402D12368042B00D0013E002FBDD084
:101E0000BFE7D9F804104446002988DC4946089801
:101E100000F056FC0028B9D0DDF820800A95002C8F
:101E20007FF48BA8002F3FF4F0AAFFF778B800BF2B
:101E3000242B2DE9F84F42D8012B40D01F468E4667
:101E40008046484875461EF801BB10F80B4014F058
:101E50000804F7D1BBF12D0F6FD06FF00049BBF133
:101E60002B0F04BF9EF800B005F1020E7BBBBBF147
:101E7000300F4CD00A273B460025B9FBF7F6284621
:101E800007FB169A05E03BD0012507FB00C01EF8B2
:101E900001BBABF1300CBCF1090F06D9ABF1410C21
:101EA000BCF1190F1AD8ABF1370C63451FDDB5F142
:101EB000FF3FECD08642E6D24FF0FF35E7E7FEF772
:101EC00063FF1622034600201A60BDE8F88F102B2E
:101ED000D2D1BBF1300F23D01F46CDE7ABF1610C5F
:101EE000BCF1190F03D8ABF1570C6345DFDC6B1C59
:101EF0002BD054B9002AE8D085BB1160BDE8F88F1B
:101F0000E245C1DA4FF0FF35C1E74042F2E79EF803
:101F1000003003F0DF03582B08D008273B46ABE71F
:101F20009EF8000000F0DF005828D5D110279EF859
:101F300001B03B460EF1020E9EE79EF800B04FF056
:101F40000049012405F1020E90E72223C8F8003071
:101F500032B10EF1FF3148461160CFE78146F8E714
:101F60004846B2E7ADDA000862E700BF8C4600B52C
:101F700086461346034A714610685DF804EB6246D4
:101F800056E700BF000000208C4600B58646134689
:101F9000034A714610685DF804EB624648E700BFEB
:101FA0000000002008B410B5002A04469DB034DBC0
:101FB0004FF4027C4FF00003ADF814C01B934FF6B2
:101FC000FF7C0291069120AB15D0013A0492079252
:101FD00002A91F9A0193ADF816C002F0BDFE421C83
:101FE00001DA8B2323600022029B1A701DB0BDE82A
:101FF000104001B070470492079202A91F9A019302
:10200000ADF816C002F0A8FE431C01DA8B23236052
:102010001DB0BDE8104001B070478B234FF0FF307A
:102020002360F5E70CB410B5204B00291C689CB068
:1020300036DB4FF000034FF402721B934FF6FF7C28
:1020400002900690ADF814201FAB16D001391E9AED
:1020500004910791204602A90193ADF816C002F041
:102060007BFE421C01DA8B2323600022029B1A7044
:102070001CB0BDE8104002B07047049107912046A3
:102080001E9A02A90193ADF816C002F065FE431C2A
:1020900001DA8B2323601CB0BDE8104002B070470A
:1020A0008B234FF0FF302360F5E700BF00000020D6
:1020B000844641EA000313F0030349D1403A23D395
:1020C0000B6803604B6843608B688360CB68C360B8
:1020D0000B6903614B6943618B698361CB69C361A0
:1020E0000B6A03624B6A43628B6A8362CB6AC36288
:1020F0000B6B03634B6B43638B6B8363CB6BC36370
:1021000040304031403ADBD230320BD30B680360B1
:102110004B6843608B688360CB68C36010301031BC
:10212000103AF3D20C3205D351F8043B40F8043B8B
:10213000043AF9D2043208D0D2071CBF11F8013B8F
:1021400000F8013B01D30B8803806046704700BF55
:10215000082A13D38B07B1D010F00303AED0C3F11C
:102160000403D21ADB071CBF11F8013B00F8013B46
:10217000A4D331F8023B20F8023B9FE7043AD9D3BD
:10218000013A11F8013B00F8013BF9D20B780370DA
:102190004B7843708B7883706046704710B50C465F
:1021A000B1F90E1004F0E4FD002803DB236D0344B5
:1021B000236510BDA38923F48053A38110BD00BF04
:1021C000002070472DE9F0410C46B1F90C101F4674
:1021D000CB05054616460BD421F48051A1813B4620
:1021E00032462846B4F90E10BDE8F04100F094B82C
:1021F000B4F90E100223002206F020FAB4F90C10F4
:10220000EAE700BF10B50C46B1F90E1006F016FA59
:10221000B4F90C30421C0EBF23F4805343F48053B6
:102220002065A38110BD00BFB1F90E1001F046BBBF
:10223000002104F0ABBC00BF70B50D4C82B0D4F8E7
:10224000E4500646069C2AB10094A847431C08D0D7
:1022500002B070BD11460123064A0094A847431CF2
:10226000F6D100228A232260336002B070BD00BF25
:1022700034010020CCE3000870B5104C82B0256812
:102280000F4CD4F8E4601C4651B1944600940A46C1
:10229000634601462846B047431C08D002B070BDD3
:1022A00001232846074A0094B047431CF6D1002278
:1022B0008A2322602B6002B070BD00BF00000020A6
:1022C00034010020CCE3000870B50F4B0F4DAB423A
:1022D000A3EB050607D00024B61055F8043B0134E3
:1022E0009847A642F9D80AF070F8094D094B5E1BD1
:1022F000AB424FEAA60606D0002455F8043B013451
:102300009847A642F9D870BD38E4000838E40008C0
:1023100038E4000838E4000838B50C4611460022BD
:102320008446074D20462A601A4664460AF033F870
:10233000431C00D038BD2B68002BFBD0236038BD78
:102340004C08002000207047024A0349034801F06E
:10235000F5BB00BF280100207D8500080800002093
:102360000C4B416810B59942044601D006F006F9BD
:10237000A168094B994202D0204606F0FFF8E168B7
:10238000064B994204D02046BDE8104006F0F6B84E
:1023900010BD00BFDC06002044070020AC07002071
:1023A000002070472DE9F84300250423294C2A49D1
:1023B0000822C4F8381104F15C002946DFF89C902B
:1023C000DFF89C80274F284EC4E90335C4E9005547
:1023D000C4E90555A5606566FEF750FB234B08224E
:1023E000294604F1C4006367C4E90749C4E90987C1
:1023F000C4E91A55C4E91E55E6622567C4F8CC50F5
:10240000C4F88050FEF73AFB194B2946C4F8DC307B
:10241000082204F1680304F59670C4F88430C4E916
:102420002298C4E92476C4E93455C4E93855C4F87F
:10243000D850C4F83451C4F8E850FEF71FFB04F13B
:10244000D003C4E93C98C4E93E76C4F8EC30BDE85A
:10245000F88300BFDC060020492300089D21000806
:10246000C5210008052200082922000809000100F2
:1024700012000200F8B5254B0646D3F83831002B80
:102480003CD0234FD7E90134013B04D51DE05A1C51
:1024900004F1680419D0B4F90C50013B002DF6D1B9
:1024A0001C4B08222946C4E90155C4E90455E360E0
:1024B00065662560A56104F15C00FEF7DFFAC4E9FA
:1024C0000C55C4E911552046F8BD3D680DB12F46A5
:1024D000D8E74FF4D671304604F060FC044680B172
:1024E00004230560294625460C304FF4D072A060C5
:1024F0006360FEF7C3FA3C602F46C3E7FFF752FF65
:10250000BFE70C2338603360DDE700BFDC06002046
:10251000280100200100FFFF436B03B17047044B0B
:10252000044AD3F838314263002BF7D13AE700BFB1
:10253000DC06002061230008704700BF704700BF21
:102540000020024A024901F0F9BA00BF2801002028
:10255000452300080020024A024901F0EFBA00BFFB
:1025600028010020A12300080CB470B50C460025FA
:102570006FF000469CB00A4A20AB059253F8042B3A
:1025800002A9CDE901341B9504960796069402F042
:10259000E3FB029B1D701CB0BDE8704002B07047A9
:1025A0000802FFFF0EB470B504466FF00046002528
:1025B0009DB00B4A21AB0B49106853F8042B0591D1
:1025C00002A9CDE90134049607961B95069402F002
:1025D000C3FB029B1D701DB0BDE8704003B0704787
:1025E000000000200802FFFF20F0030110F00300AC
:1025F000C0F1000051F8043B00F1040C4FEACC0C90
:102600006FF000021CBF22FA0CF213434FF0010CD2
:102610004CEA0C2C4CEA0C4CA3EB0C0222EA030211
:1026200012EACC1204BF51F8043B0430F4D0C2F1DA
:10263000000102EA0102B2FA82F2C2F11F0200EBCB
:10264000D20070474B1C70B51AD01446938952685B
:1026500023F02003A381236BCDB2A3B1636B93421C
:1026600009DD23685A1E226003F8015C63680133A8
:102670006360284670BD214601F07CF80028F0D048
:102680004FF0FF35F5E7236921682BB18B4203D268
:1026900011F8013CAB420ED023460320C4E90E12D0
:1026A000012204F140066063266303F8425F284676
:1026B000C4E9003270BD01390132C4E90012D8E723
:1026C00010B50C46096B69B104F14003994201D081
:1026D00005F058FE0020E36B2063636013B1A36B29
:1026E000236010BD0021A2894FF0FF3042F020028C
:1026F0002369A2816160F3E72DE9F04F85B0019372
:1027000002FB03F30E9C9BB38846D4E90015AB4251
:1027100044D983461E464FF00009CDE9023204F148
:10272000400A40462A46FFF7C3FC2068216B284434
:102730003746C4E90009A844761BE9B1514502D0E7
:10274000584605F01FFEE16BC4F83090616099B106
:102750000D46A16BB5422160E3D332464046FFF7F8
:10276000A7FCD4E90021891B3244C4E90021019B64
:10277000184605B0BDE8F08FDDE902322B44DB1BC3
:10278000B3FBF2F300211846A28942F02002A28195
:102790002269C4E9002105B0BDE8F08F1E46DCE7E0
:1027A0002DE9F04F8A46B1F90C10DDB00390880492
:1027B0000793DAF8643007D441F4005123F400534E
:1027C000AAF80C10CAF86430C3F340319B0400F13E
:1027D0009D83164616F8013B0D93002B00F07D8675
:1027E0008E468B468946DFF89882069105910891BE
:1027F00018F8034014F008046ED1252B5DD127464C
:102800003178A1F12503721C532B61D8DFE813F056
:10281000540060006000600060002E0260006000F4
:10282000600060006000CD00CD00CD00CD00CD0087
:10283000CD00CD00CD00CD00CD0060006000600077
:1028400060006000600060006000600060002202C4
:1028500060006000600060006000600060002602B0
:10286000600060002E016000600060006000600099
:10287000600060006000D900600060003C01600002
:10288000600060006000600060006000A101A601BF
:10289000600060006000AD01B50160006000F901FA
:1028A00060000402F6051B02600060001F02600069
:1028B000F90560006000D9001646DAF80430002BF4
:1028C00058DDDAF80030197816F8012C91422FD033
:1028D00005985DB0BDE8F08FDAF8043000251A469F
:1028E0000AF140040EE0DAF800301A78013318F8E3
:1028F000022017073CD5DAF8042009F10109013A52
:10290000CAE90032002AEEDCDAF8301019B3A1422D
:1029100002D0039805F036FDDAF83C30CAF83050A2
:10292000CAF80430BBB1DAF83830CAF80030DCE756
:102930000133CAF80030DAF804300496013B09F19B
:102940000109CAF80430049E16F8013B0D93002BD0
:102950007FF44EAFBCE70023CAF80430BAF80C305D
:1029600043F02003AAF80C30DAF81030CAF800302F
:102970000496E8E7DAF83010002900F0B3820AF193
:102980004003994202D0039805F0FCFC0023CAF8EA
:102990003030DAF83C30CAF80430002B00F0A28264
:1029A000DAF83830CAF800308DE714F08F0F8FD185
:1029B00007EB870701EB4701A1F130077178164655
:1029C0001FE7049244F400741023069303232D4A56
:1029D0000892DAF80410002900F3DC80DAF83010ED
:1029E000002900F07F820AF14000814204D0039860
:1029F000099305F0C7FC099B0021CAF83010DAF8EA
:102A00003C10CAF80410002900F06C82DAF8381083
:102A1000CAF80010610640F1BD80022B00F0FE8173
:102A2000032B00F02A81012B3CD0012F04F010026F
:102A300038BF012714F001040A9240F030840A9B49
:102A4000002B40F0C782079C3B4654F8041B012230
:102A50000398CDF800A0FFF74FFE002800F04F824A
:102A6000059B81440133079405936CE7049244F07D
:102A700001040823034A069308920323A9E700BF31
:102A8000ADDA0008E968000811461CA801F008F852
:102A9000012344F040040490DAF8041000299DDD7D
:102AA000012BC2D1002F04F0100208BF4FF0FF37F6
:102AB00014F001040A9240F08483DAF800600A9A64
:102AC00031781CAD695C002A00F0C48200293FF413
:102AD000FFAEDAF8041001360139012FCAF80060A0
:102AE000CAF8041000F019830AF14006CDF82490CA
:102AF000B14626461C4612E0DAF800201178013271
:102B0000695C002900F00683DAF804100134013909
:102B1000A742CAF80020CAF8041000F0FB8200297E
:102B2000EADCDAF83010002900F00185494502D0CE
:102B3000039805F027FCDAF83C20CAF83060CAF8A0
:102B40000420002A00F0F384DAF83820CAF80020C4
:102B5000D4E70023049244F040049DE704920A2342
:102B60008B4A06930892032333E723077FF4B0AE22
:102B7000717844F00404164643E6DAF8043004920F
:102B8000002B4FF00003824A069308924FF0030394
:102B90007FF724AFDAF80000017818F801100A076F
:102BA0007FF53BAF0AF14005099400262C461D46EF
:102BB00008E00130CAF80000037818F803301B075A
:102BC00040F18D81DAF8043009F10109013B002B55
:102BD000CAF80430EDDCDAF83010002900F0828108
:102BE000A14202D0039805F0CDFBDAF83C30CAF8D8
:102BF0003060CAF80430002B00F07481DAF8380035
:102C0000D8E720077FF464AE71786C2900F0438424
:102C1000164644F00104F4E5E70604923FF593AE4E
:102C2000079A660752F8043B079200F1F683E5071E
:102C300000F14F84A00740F14C844FEAE972C3F8D9
:102C400000905A607FE6049244F40874BCE60223C4
:102C50000492BEE6049244F0010480E721077FF469
:102C600037AE717844F002041646CAE527437FF474
:102C70002FAE717810241646C3E57B1E262B44F434
:102C8000586440F24781A7F1270327270B930023BD
:102C900012AE1A4609930AF1400335460A933346A9
:102CA000069EDAF8001091F800C0ACF12B004D2818
:102CB0003AD8DFE800F082398239398D717171714B
:102CC0007171718787393939393939392727272778
:102CD0002727393939393939393939393939393988
:102CE000393939773939393939393939272727275E
:102CF0002727393939393939393939393939393968
:102D0000393939770A2E0FDD24F4386405F801CB00
:102D1000DAF8040001380028CAF8040064DD013143
:102D2000013FCAF80010BCD106961E46E10505D544
:102D3000B54200F29383B5423FF4CAAD14F01002DD
:102D400040F0C880069B089F314603982A70B84718
:102D5000079BA20603F1040700F1B680630700F1A8
:102D6000588314F0010240F0AE80A10740F1AB801F
:102D7000084B0899039899423146069B00F08284DB
:102D800000F070FE0B46079A1168C1E900039DE050
:102D9000691F0008E9680008BE4824F4386430F967
:102DA0001660B3E704F4C060B0F5007FBCD124F432
:102DB0000074102644F4A064A8E72006B4D524F0DB
:102DC0008004A3E7B34830F91660082E9CDCABE71B
:102DD00020059BD516B9082644F40074600540F11F
:102DE000AE8224F4B06491E7DAF83010002900F0E4
:102DF00079830A98814205D00398069305F0C2FAB8
:102E00000022069BDAF83C10CAF83020CAF80410F9
:102E1000002900F06783DAF8381081E7DAF800104B
:102E2000002F0B7808BF4FF0FF3718F8035004F05D
:102E30001002E40705F008056FD4002A00F06F8146
:102E4000002D7FF480ADDAF804300131013B012F11
:102E5000CAF80010CAF8043008BF09F101093FF4AC
:102E600072AD01240AF1400613E0DAF800301A7856
:102E7000013318F80220110700F1EA80CAF8003087
:102E8000DAF804300134013BA742CAF8043000F0FC
:102E90000883002BE9DCDAF83010002900F08A837F
:102EA000B14202D0039805F06DFADAF83C30CAF866
:102EB0003050CAF80430002B00F07C83DAF8383048
:102EC000CAF80030D3E7079B1B681860059B07977B
:102ED00001330593099BAD1B1D44A94433E52B46E3
:102EE000099C9AE50022BAF80C30DAF8101043F089
:102EF0002003CAF80010AAF80C30CAF80420059B79
:102F000023B1BAF80C305B067FF5E2AC4FF0FF332B
:102F10000593DDE400230B93B9E6002A00F01A8242
:102F2000002D7FF410AD07990DF1340C0025664695
:102F30002C461546099101F0E9FEA042DFD0DAE9FE
:102F4000002112F8010B12AB185501390A93BBF19D
:102F5000030F04F10103CAE90021079310AC02D169
:102F60002368042B04D0082200212046FDF786FDAB
:102F70003146079B0A9A03980094FFF75DF9B0F178
:102F8000FF3F8346BBD0002840F08E823060FFF7C1
:102F90004FF9002840F05583079B9944013F002DCD
:102FA00040F09E822C460436DAF80420002A40F3D2
:102FB000E782DAF80020127818F80220100701D40E
:102FC000002FB8D1B4462A460999002A00F0C881DA
:102FD0000791B8E4DAE90003BB4280F24E83DAF8E5
:102FE00030100AF140060246CDE9099B18462546F5
:102FF0000B46B3460244A1463E46CAF800200444AC
:103000003F1A002B00F032825B4503D0194603982B
:1030100005F0B8F9DAF83C00CAF83050CAF80400F4
:10302000002800F02382DAF8382087424FF00003AE
:10303000CAF80020DEDC0346344610464A46DDF876
:1030400028B0DDF824901444DB1B3844CAE900039F
:10305000A14478E4079A52F8040B00293FF438ACF5
:103060000446DAF80410012F01F1FF31CAF8041008
:1030700006F10101CAF80010317804F8011B41D0B3
:10308000C619CDF81C900AF14007B14609900A9E76
:103090000B9213E0B0DB0008DAF800100878285C27
:1030A00040B3DAF804000138CAF80400481CCAF832
:1030B0000000097804F8011B4C451BD0DAF8041015
:1030C0000029E9DCDAF83010002900F04382B94227
:1030D00002D0039805F056F9DAF83C10CAF83060CF
:1030E000CAF80410002900F03582DAF83810CAF85E
:1030F0000010D3E70998DDF81C90231A0B9A002BD7
:103100003FF4E6AB99440792059B013305930023F6
:10311000237018E42346DDF82490994413E40798BB
:1031200050F8042B1446002D49D1DAF80430012F51
:1031300003F1FF33CAF8043001F10103CAF800308B
:103140000B7804F8013B00F09A82D61907900AF137
:103150004007099213E0DAF8001008784B1C18F8C1
:103160000000020727D4DAF80400CAF8003001385A
:10317000CAF80400097804F8011BB4421BD0DAF83D
:1031800004100029E7DCDAF83010002900F0228270
:10319000B94202D0039805F0F5F8DAF83C10CAF805
:1031A0003050CAF80410002900F01482DAF8381000
:1031B000CAF80010D1E7099A0798A31A9944079012
:1031C000A2E7002A40F01781079B53F8042B0992CD
:1031D000079300245D4601F099FDA0423FF48FAEB5
:1031E000DAE9003213F8011B013ACAF80420032D72
:1031F00012AA1155CAF8003004F101040DF1380B80
:1032000003D1DBF80030042B04D0082200215846FB
:10321000FDF734FC099E234631460398CDF800B0F3
:1032200012AAFFF709F8411C05463FF468AE0028D2
:1032300040F0F7803060064610AB082200211846A7
:103240000B93FDF71BFC3246AE4E0B9BD6F8E060AD
:1032500003980CA9B047012814BF00269DF83060E0
:103260001CAB9B5D002B00F05181032DA14400F0AD
:10327000EF80013F0A9B13B9099B04330993DAF8E5
:1032800004300024002B40F39B80002FA3D1AB46D9
:103290000A9B002B7FF457AB099A13604AE0002A7F
:1032A00040F08680079951F8042B099207911C463B
:1032B00012AE0B9301F02AFDA0423FF420AEDAE9F2
:1032C000002112F8010B0139BBF1030F3055CAF888
:1032D0000410CAF8002004F1010410AD02D12B68DB
:1032E000042B04D0082200212846FDF7C7FB234603
:1032F0003246099903980095FEF79EFFB0F1FF3F13
:1033000083463FF4FCAD002840F093800A9BA14423
:10331000013F23B9099A1360099B04330993DAF832
:1033200004200B9C002A28DD002FC3D10A9B002B10
:103330007FF409AB059B01330593FFF704BB0B98A2
:1033400024F4607410B101380B90013709980130F2
:103350000990DDE4079951F804CB002D3FF4E6AD68
:10336000059B0791013305930023CCF80030FFF74C
:10337000EABADAF80420002A9CDCDAF830100029D6
:1033800000F03A810AF14002914202D0039804F021
:10339000F9FF0023DAF83C20CAF83030CAF80420DC
:1033A000002A00F02981DAF83820CAF80020BBE7AB
:1033B000002209927BE7DAF80430002B3FF70BAFCD
:1033C000DAF83010002900F028810AF14003994210
:1033D00002D0039804F0D6FF0023CAF83030DAF8A0
:1033E0003C30CAF80430002B00F01781DAF838308E
:1033F000CAF8003049E70DAB0993EAE60492FFF7FB
:1034000038BB0A230492404A069308920323FFF72D
:10341000E0BA079B1B68188058E5A3F80090FFF7F7
:1034200092BA821CC7D0099B1E68731C7FF404AF3C
:1034300016E710F1020F9CD00328A14402D12A689C
:10344000042A00D0013F0A9B002B3FF465AF66E7DA
:10345000DBF80030042B7FF40CAF0BE715F8011CF0
:1034600052460398013DFFF7EDF864E40023DDE9DF
:10347000099BCAF80430BAF80C3043F02003AAF8CC
:103480000C30DAF81030CAF80030002C3FF437ADB9
:10349000A144FFF758BAB17844F002040236FFF7AE
:1034A000B0B9B944FFF74FBA10F1020F00F0C7806E
:1034B0003068FEF7BDFE002840F0C380079BBBF1DB
:1034C000030F99447FF46AAD2268042A7FF466AD45
:1034D00065E5C3F80090FFF736BA0593FFF7F8B932
:1034E000002461E506961E460023CAF80430BAF8A7
:1034F0000C3043F02003AAF80C30DAF81030CAF888
:10350000003013E434010020E9680008AB46002CC9
:103510003FF4BEAE12AB039E1D19013C524630462D
:1035200015F8011DFFF78EF8002CF6D1B0E6002249
:103530002346CAF80420BAF80C20DDF8249042F0A3
:103540002002AAF80C20DAF810209944CAF80020CA
:10355000FFF7F9B90023CAF80430BAF80C3009981B
:1035600043F02003AAF80C30DAF81030A042DDF85E
:103570001C900B9ACAF800303FF4C1AC231AC1E585
:10358000DAF83010002900F082800AF140029142FE
:1035900002D0039804F0F6FE0022CAF83020DAF8D0
:1035A0003C20CAF80420002A71D0DAF83820CAF882
:1035B000002000E50023CAF80430BAF80C30A1441A
:1035C00043F02003AAF80C30DAF81030CAF80030C3
:1035D000FFF7B9B9099A0798A31A99440023CAF8C2
:1035E0000430BAF80C3043F02003AAF80C30DAF8B3
:1035F0001030CAF80030E2E50023CAF80430BAF807
:103600000C3043F02003AAF80C30DAF81030CAF876
:103610000030002C3FF48AAE71E40023CAF8043075
:10362000BAF80C30AB4643F02003AAF80C30DAF8B5
:103630001030CAF80030002C3FF42AAE5FE4079C3B
:10364000B2E42A46079DB44609990A9E002D3FF42C
:10365000BCAC0F467419039ECDF81CC00992013D05
:103660005246304614F8011DFEF7ECFF002DF6D14E
:103670003946DDF81CC0099AA7E43C46E4E409F1A8
:1036800001099CE503F056FB0B46FFF77CBB0023CA
:10369000CAF80430BAF80C30B44643F02003AAF854
:1036A0000C30DAF810302A460999CAF80030002C9C
:1036B0007FF425AC89E400BF80EA0102844612F061
:1036C000030F4FD111F0030F32D14DF8044D11F01B
:1036D000040F51F8043B0BD0A3F101329A4312F0CE
:1036E000803F04BF4CF8043B51F8043B16D100BFA7
:1036F00051F8044BA3F101329A4312F0803FA4F138
:1037000001320BD14CF8043BA24312F0803F04BFBE
:1037100051F8043B4CF8044BEAD023460CF8013B2B
:1037200013F0FF0F4FEA3323F8D15DF8044B7047D5
:1037300011F0010F06D011F8012B0CF8012B002A13
:1037400008BF704711F0020FBFD031F8022B12F002
:10375000FF0F16BF2CF8022B8CF8002012F47F4FBD
:10376000B3D1704711F8012B0CF8012B002AF9D1C5
:10377000704700BF2DE9F0410C46096B04F140038E
:10378000994214D0666B77003A4604F07BFF0546F9
:1037900030B300EB0608014632464046FEF788FC8F
:1037A000C4E90C57C4F800800020BDE8F0814FF454
:1037B000806103F0F3FA98B14FF4806194F84220ED
:1037C0002063616380F8FF2394F8412000F2FD3309
:1037D00080F8FE2394F8402080F8FD232360E3E77F
:1037E0004FF0FF30E1E700BF70B54C1C2BD00E4608
:1037F0000546144610B1436B002B4CD0B4F90C3085
:1038000023F020025807A28106D4D9061BD51B0736
:1038100034D442F00402A281226B6368F6B2AAB1EA
:10382000626B9A4209DD23685A1E226003F8016C1C
:10383000636801336360304670BD21462846FFF758
:1038400099FF0028EFD04FF0FF36F4E72269216896
:103850002AB18A4203D211F8012CB2421ED022466C
:103860000320C4E90E13012304F1400560632563BE
:1038700002F8426F3046C4E9002370BD2146284655
:1038800003F004F90028DED1B4F90C20A06022F086
:103890000802A061BDE7FEF73FFEAFE70139013343
:1038A000C4E90013C7E700BF03460A460249086897
:1038B0001946FFF799BF00BF00000020002238B56D
:1038C000064D044608462A6008F073FD431C00D0EC
:1038D00038BD2B68002BFBD0236038BD4C0800207E
:1038E000004870470000C07F2DE9F04F894692469E
:1038F0001E460D4685B05A4F03902A4615F8014BD7
:103900003B5D13F00803F8D12D2C7DD02B2C41D03A
:103910004FF0FF3202936FF00043CDE90023002EF9
:1039200043D1302C79D00A27B0463E46DDE900016C
:103930003A46434607F08CFD002383468E461846E0
:103940001946A44610E08E4508BF83454CD000FBC5
:1039500008F307FB0133A0FB07010B44201843EBDE
:10396000E471012315F801CBACF13004092C05D921
:10397000ACF14104192C1ED8ACF13704A64222DD6B
:10398000B3F1FF3FEED083457EEB0103DBD24FF076
:10399000FF33E7E74FF0FF3102936FF000432C78DD
:1039A000CDE90013951C002EBBD0102E3ED037461B
:1039B0004FEAE678BAE7ACF16104192C03D8ACF110
:1039C0005704A642DCDC5A1C13D0029A12B14042C2
:1039D00061EB4101BAF1000F03D0002B3DD1CAF8D1
:1039E000009005B0BDE8F08FA242B0DA4FF0FF338F
:1039F000B8E72223039A1360BAF1000F28D0DDE95B
:103A0000000105F1FF39EAE74FF000400093012380
:103A10002C78CDE90103951C81E72B7803F0DF03B7
:103A2000582B0ED00827B0463E467FE7302C03D0F7
:103A300037464FF0000879E72B7803F0DF03582B67
:103A4000F6D110276C784FF000083E4602356DE73E
:103A5000DDE9000105B0BDE8F08FCDE90001CEE75A
:103A6000ADDA000840E700BF8C4600B58646134635
:103A7000034A714610685DF804EB624634E700BF04
:103A8000000000208C4600B586461346034A714666
:103A900010685DF804EB624626E700BF00000020D6
:103AA00070B50D7804465E2D25D04FF0000EF4461B
:103AB000481C002223466EF307026EF30F226EF3BA
:103AC000174204F580716EF31F6243F8042B8B429A
:103AD000FBD175B18CF00101615500F1010E1EF8AA
:103AE000013C2D2B0FD05D2B0BD01BB11D4670461A
:103AF000F2E7013870BD4FF0010E4D78F446881C96
:103B0000D7E7704670BD90F801C0BCF15D0FEDD0F5
:103B10006545EBDC6E1C0230A21902F8011B131B79
:103B2000013B9C45F9DCACEB0503013B6545A8BFB7
:103B300000230EF1020EF518D1E700BF2DE9F8437E
:103B40004FF0000980460F461646D6E90154013D64
:103B500010D4A389012B08D9B4F90E30013304D055
:103B600021464046B84749EA0009013D6B1C04F173
:103B70006804EED13668002EE7D14846BDE8F883E8
:103B8000F03070470048704724020020004870471A
:103B900024020020000000002DE9F04F9FB088466D
:103BA0000792002100220024CDE9041283464146F9
:103BB0001A9419910F4611F8012B2D2A5ED801A0F5
:103BC00050F822F09B3D00087D3C00087D3C000839
:103BD0007D3C00087D3C00087D3C00087D3C0008E1
:103BE0007D3C00087D3C0008B33B0008B33B000867
:103BF000B33B0008B33B0008B33B00087D3C000822
:103C00007D3C00087D3C00087D3C00087D3C0008B0
:103C10007D3C00087D3C00087D3C00087D3C0008A0
:103C20007D3C00087D3C00087D3C00087D3C000890
:103C30007D3C00087D3C00087D3C00087D3C000880
:103C40007D3C0008B33B00087D3C00087D3C00083B
:103C50007D3C00087D3C00087D3C00087D3C000860
:103C60007D3C00087D3C00087D3C00087D3C000850
:103C70001D4300087D3C00083143000800210891E5
:103C8000302A00F09580002309932F2A144640F231
:103C9000EF844FF0000938464E464D4613E00130A0
:103CA000082D1990C8BF09EB89090478C6BF02EB3B
:103CB0004902A2F13009A3F130062F2C224605F16A
:103CC000010540F3B48006EB8603392C02EB430375
:103CD000E5DD0122AB4902F013FF002879D1199AE2
:103CE0001346013219925C78002D40F08D85302CFE
:103CF00040F03B8513461846013319931C78302C4D
:103D0000F9D0C2F101021044A4F13103082B37D8D5
:103D1000199F012539464FF0000A431CA4F1300ECB
:103D20000C93002006EB86060EEB46064B1C1993FF
:103D30004C78A4F13002092A00F2E08296461999E3
:103D40000130002AF2D00128D8BF05F1010C40F360
:103D5000878400EB050C0CF1FF340A9703E07E002A
:103D6000AC4200F07C84082D06EB860705F10105C6
:103D7000F5DD102DDCBF09EB89094FEA4909EFE7B2
:103D8000652C40F0D8824FF0000A0123CDF830A016
:103D90000A93099B034340F0BF82079B002600273C
:103DA0000BB1C3F80080304639461FB0BDE8F08F34
:103DB0007A7802F0DF02582A00F01284013719974E
:103DC0003A78302AFAD0002A00F081820123099340
:103DD0005BE70020AA460C900A90652C34D0452C55
:103DE00032D000231093002D7AD1099B034340F079
:103DF0006E820A9B002BD0D1692C00F0898400F3DD
:103E00005F84492C00F084844E2CC6D15E4919A8E9
:103E100004F020FE0028C0D0199B1B78282B00F04E
:103E2000A5855A4804F018FF06460F4651E20122C4
:103E3000544902F065FE0028CBD1199BAA465A1CB2
:103E400019925C780C9074E7002DA2D0DDF86480A4
:103E500008F10103199398F801402B2C00F05982C6
:103E60002D2C00F04E824FF0000CA4F130010929F6
:103E700000F23F82302C199B0AD1013319931C7830
:103E8000302CFAD0A4F13102082AAAD8A4F13001CA
:103E90005A1C19925C782F2C40F3FE8396460B93A4
:103EA00008E0013219929EF80140A3F130012F2C55
:103EB00006DD964601EB8103392C04EB4303F0DD6C
:103EC0000B9BD21A082A40F3E78344F61F63109332
:103ED000BCF1000F87D0109B5B421093002D84D063
:103EE0000C9A109BBAF1000F08BFAA469B1A102D1E
:103EF00030460B932C46A8BF1024FCF74BFA024621
:103F00000B46092DCDE9042316DD214B03EBC40339
:103F100053E9122306F03EFF024648469046894682
:103F2000FCF738FA02460B4640464946FCF7F6F8DD
:103F30000F2DCDE904012DDC0B9B002B00F020831D
:103F40000B9B40F35282162B40F3AD830B9AC5F1C5
:103F5000250393421EDBDDE904230D4CC5F10F055B
:103F600004EBC501D1E9000106F014FF0B9B5D1BBA
:103F700004EBC504D4E9002306F00CFF06460F4607
:103F8000A7E100BFD8E20008E8E20008CCE300089F
:103F900058DD00080B9B2C1B1C44002C40F3D181E6
:103FA00014F00F000AD0DDE90423354901EBC0010C
:103FB000D1E9000106F0EEFECDE9040134F00F0373
:103FC00040D0B3F59A7F00F3B883102B4FEA231447
:103FD00040F31E85DDE9040100232A4A0997904633
:103FE00099461746E20704D5D8E9002306F0D2FE29
:103FF00001236410012C09F1010908F10808F1D12D
:104000003A46099F0BB1CDE90401059B02EBC901BA
:10401000A3F154730593DDE90423D1E9000106F00F
:10402000B9FE194B194A0B409342CDE9040100F245
:104030008483174A934240F241844FF0FF33154C7A
:10404000CDE9043400230A932B465246394658469C
:10405000009604F0AFFE1490002800F06E83109AD2
:104060000C9B4FF0000A9B1A0B9ACDF824A0002A53
:10407000A8BF0023109322EAE2731593E5E000BF86
:1040800058DD000848DE00080000F07F0000A07C3A
:104090000000907CFFFFEF7FD21A1F2AA4EB0204DE
:1040A00000F33282012393401E4600250A9BA04460
:1040B0004C44A14598444B46A8BF23464345A8BF5E
:1040C0004346002B04DDE41AA8EB0308A9EB03091F
:1040D000109B002B00F3BE81002C00F3D4810B9BBE
:1040E000002B00F30782B8F1000F00F3F781B9F15C
:1040F000000F08DD51464A46584605F03DF8824615
:10410000002800F0F4813A4658461A9905F0CAF89A
:104110000990002800F0EB810023099AD168D36050
:104120001191514605F09EF80028C0F2EA83DDF8AF
:10413000149000F076835146099805F04FFA00225A
:104140004FF0804304460D4607F0A0F8002800F029
:104150007181119B002B40F0E381049B002B40F008
:104160006B82C9F31303002B40F00D82002220461E
:104170002946A94B07F080F8002840F049832046E3
:10418000A64B2946002206F005FE03460C46CDE963
:10419000123401F100430E900F93DFF88482A14B9B
:1041A00009EA08089845DDE90E4500F0C0810A9B40
:1041B0001BB3B8F1D46F20D895A3D3E90023DDE970
:1041C000120107F063F8A0B1DDE9120107F0BAF8B7
:1041D000012838BF0120FCF7DDF8119BCDE9120161
:1041E000002B40F0BD8201F1004316901793DDE9EA
:1041F000164505F1D663A3EB0805DDE90C0105F0D2
:104200000DF902460B462046294606F0C3FDDDE9BE
:104210000C23FBF783FF0C46CDE904010A9B23B96D
:104220007F4B2340984500F0B78158461A9904F017
:1042300065FD3946584604F061FD5146584604F084
:104240005DFD5846099904F059FD149C5846616873
:1042500004F02EFD0746002800F04981226904F190
:104260000C01023292000C30FDF722FF1CAB0193CF
:104270001BAB00935846DDE904341A46CDE90C34F3
:10428000234605F04DF91A90002800F00581012120
:10429000584604F037FE8246002800F028811B9B18
:1042A000002BC0F21581109ADDF8548003EB02094F
:1042B0000A9A1C9C9B1A23445B4A013B9342C4F11B
:1042C0003604FFF6E9AE012300251E46EEE6002681
:1042D0000027079A0AB1199B1360089B002B3FF433
:1042E00062AD07F100431F46304639461FB0BDE8B6
:1042F000F08F0023CDF86480109374E501230A93B6
:104300006BE54FF0010C08F10203199398F8024095
:10431000ABE54FF0000CF6E7002597E50022089288
:10432000791C19917A78002A3FF437AD0F46A7E43B
:1043300001220892F4E7452C3FF425AD01230A93AE
:1043400053E53FF47FAE644214F00F020AD0DDE97A
:104350000401364B03EBC203D3E9002306F044FE0D
:10436000CDE9040124113FF46DAE1F2C37DCDDE9EB
:10437000040114F0100318BF6A230A930023DFF826
:10438000B080E20704D5D8E9002306F003FD01233D
:10439000641008F10808F4D10BB1CDE904010A9BBF
:1043A000A3B1DDE90401C1F30A52C2F16B03002B92
:1043B0000ADD1F2B40F339830020342B049040F397
:1043C0007C834FF05C7305936A230A930022DDE936
:1043D0000401002306F046FF00283FF435AE2223F7
:1043E00000260027CBF8003073E71633FFF6D2AD76
:1043F000DDE904010C9B109A9A1A0C4B03EBC203E3
:10440000D3E9002306F0F0FD06460F4661E700BF42
:104410000000C0FFFFFFDF410000F03F0000E03F71
:104420000000F07F0000E07F02FCFFFF58DD000885
:1044300000DC0008AC4B20462946002206F0AAFC0E
:10444000119BCDE91201002B65D101F100430E90C3
:104450000F93A2E651461A46584604F033FE8246B0
:10446000002844D001461A9A584604F079FD0028E5
:104470003DD011901A99584604F040FC119B002C35
:104480001A937FF72CAE224658461A9904F074FE10
:104490001A9000287FF423AEB94605462223002651
:1044A000924FCBF800302946584604F027FC494685
:1044B000584604F023FC5146584604F01FFC584669
:1044C000149904F01BFC5846099904F017FC00E706
:1044D000159ADDF84090A2EB0308E9E6394642461A
:1044E000584604F049FE074600287FF400AEB9465E
:1044F0001A9DD3E739465846159A04F0E3FD07465E
:1045000000287FF4F0ADF2E7012279491646CB1A74
:1045100002FA03F5CAE5DDE91234CDE90E343CE6D2
:104520000023744CCDE90E34CDE9123435E6A9F1FF
:1045300054730593DDE904452046294604F06EFFD7
:10454000DDE90E2306F026FC2B462246FBF7E6FDAE
:10455000DFF89891684B01EA09099945CDE9040112
:1045600079D9DDE90C0103F15473994202D1064671
:104570000136BCD04FF0FF33604CCDE9043454E633
:10458000DDE90467A5E600235D4CCDE90E34002388
:10459000584CCDE9123400E6DDE912562846314682
:1045A00006F06EFFFBF742FF0B46024631462846F7
:1045B000FBF7B2FD119D049BC4F313041D432C4370
:1045C0008046894626D142A3D3E9002306F054FE53
:1045D00000283FF42AAEB946DDE904671A9D62E778
:1045E0000293089B584601931AAB0093454A1BABB4
:1045F00019A901F00BFE10F00F0504463FF467AE59
:10460000062D40F0B58000227B1C00260027089272
:1046100019935EE630A3D3E9002306F02DFE0028AF
:10462000D9D12FA3D3E900234046494606F042FEE4
:1046300000283FF4FAADCEE7049B012BA3D1B9F1DA
:10464000000FA0D1B9461A9C222325460026002738
:10465000CBF8003027E701F154740594DEE50A9F9A
:104660000C9B082D03440C936DDC6546FFF759BB8A
:1046700001223846244902F043FA002800F0BB80AA
:104680004FF000094E4648464D46CA46CDF8309098
:10469000CDF82890FFF7A3BB44F61F639942A8BF4B
:1046A0001946109114E40B981849DDE9042301EB35
:1046B000C001D1E9000106F06DFB06460F4608E691
:1046C0006E2C3FF4A3ABFFF768BB00BFAFF30080D5
:1046D0009535A094FFFFCF3F9535A094FFFFDF3FB6
:1046E00035E5AF350000E03F0000E03F0000F07F1F
:1046F000E2FBFFFF0000F03FFFFF9F7CFFFFEF7F2B
:104700000000F0BFD8DB0008D8E2000858DD000840
:10471000A04919A804F09EF900283FF43EAB199B6C
:104720009D49013B19A8199304F094F910B9199BFC
:10473000013319930026994FCBE522230026974F8A
:10474000CBF80030C5E5BCF1100FD8BF09EB8909E3
:1047500065464FF00000D8BF02EB4909FFF7E6BA03
:10476000DDE91234CDE9163441E50020FFF7CCBA7B
:104770001A9A3AB135211CA804F07AFF58461A99C2
:1047800004F0BCFA013D1B9B042D00F2C481DFE85C
:1047900005F0032C291E03001C9A049203F23342F5
:1047A0001D9B23F4801343EA02530593E10502D5D0
:1047B00043F000430593794ADDE904671A40002A73
:1047C0007FF487ADFCF7E0FA2223036081E54FF028
:1047D000FF326FF00043CDE90423E3057FF5D0AE4F
:1047E000059BE5E76D4B0593F7E7DDE91C121D9B83
:1047F000CDE90412DAE7199A0646134601321992F6
:1048000081465C78FFF773BAAA460C90FFF791BA1D
:104810000023634CCDE90E340023624CCDE9123401
:10482000BBE44B461198B446B946DDE90C67AE4689
:104830005D49C3F31302002845D08A4200F0FD8091
:10484000ADBB049A1CEA020F34D0304639460493BB
:1048500004F0E4FD0A9B002B00F03781049BC3F3B6
:104860000A53C3F16B03002B40F352811C0504F182
:104870007F53002203F5401306F08CFA02460B46E4
:1048800030463946FBF74AFC06460F463046394665
:10489000464B002206F07EFA404B06460B400F4680
:1048A000002B7FF49BAE2223CBF8003096E61EEA65
:1048B000030FCAD10A9B002BE8D18FE601F1547394
:1048C0000593FFF7BFBB002A74D1DDE904452246FA
:1048D000002C40F0A2800A9A002A40F0CB8025F0FC
:1048E0000044240D2405A4F580146FEA14536FEAE4
:1048F000035305934FF0FF3304931A9DDDE90467DA
:10490000D1E5119BDDE904010343B946DDE90C67FC
:10491000D0D1C1F31303002BCCD121F00044240DDE
:104920002405B4F1D66F2546C4D9099A536913B941
:104930001369012BBEDD01220999584604F01CFCC5
:104940005146099004F08EFC0028B3DD0A9B002B31
:10495000C9D0A5F580136FEA13536FEA035305938B
:104960004FF0FF330493DDE904678FE7104919A87E
:104970001CAA04F089F805287FF453AA1D9B43F074
:10498000FF4343F4E00305931C9B0493DDE90467B4
:104990009FE400BFDCE20008E0E200080000F07FD6
:1049A0000000E0BF0000E03FFFFF0F0000005039B3
:1049B000ECDB0008A5BB049A1CEA020F3FF47AAFB7
:1049C00030463946049304F029FD0A9B002B62D03F
:1049D000049BC3F30A53C3F16B03002B40F38C8099
:1049E0001C0504F17F53002203F5401306F0D2F9B1
:1049F00002460B4630463946FBF78EFB0022002369
:104A000006460F4606F02EFC00283FF43FAF1AE69C
:104A10004FF00009414AFFF7F8BABEF1000FCBD0C2
:104A20001EEA030F3FF446AFCAE74FF0FF3202FA27
:104A300003F3049A1A400492C6E40A9A0499B2B1A4
:104A4000374A1A40B2F1D46F11D84FF0FF30120D2F
:104A5000C2F16B0200FA02F2914240D0BEF1000FA7
:104A60007FF425AF11EA0C0F3FF424AFEDE64FF0D1
:104A7000FF32F1E72A4D1D40B5F1D66F3FF669AF21
:104A8000B5F15C7F3FF602AF2223002600271A9D76
:104A9000CBF8003007E502460B4630463946FBF7B7
:104AA0003BFB1A9C0022002306460F46254606F0D3
:104AB000D9FB00283FF4F7ACC6E54FF0FF33C2F155
:104AC0004B0293400B4005937EE402460B46304672
:104AD0003946FBF723FB1A9D06460F46E3E4114ACD
:104AE00093420CD00E4A1A4002F58013059300231E
:104AF0000493DDE90467DDE602460B467AE70131FF
:104B0000F0D1222300261A9D054FCBF80030CAE4CD
:104B100002460B46B4E6002348E600BF48DE000824
:104B20000000F07FFFFFEF7F014BFFF735B800BFBC
:104B3000340100208C4600B586461346034A714670
:104B400010685DF804EB6246FFF726B8000000200D
:104B500084460A460249034B08686146FFF71CB8C1
:104B600000000020340100202DE9F04705460C46E6
:104B7000DFF888A0134629462246DAF80000FFF73E
:104B80000BF802460B4604460D4606F09DFB48BB5B
:104B90002946204606F0F6FB20F000470646184955
:104BA000384606F03FFCD0B938461549FBF722FFDE
:104BB000A8B925F000494FF0FF3220464946114B75
:104BC00006F082FB38B9204649464FF0FF320D4BC4
:104BD00006F05CFB18B12222DAF800301A60304689
:104BE000BDE8F087002D084804DAFEF779FE00F1F1
:104BF0000046F4E7BDE8F047FEF772BE0000002073
:104C0000FFFF7F7FFFFFEF7FCCE300082DE9F04738
:104C10000446DFF8A0A00A46274B2146DAF8000038
:104C2000FEF7BAFF02460B4604460D4606F04CFB63
:104C3000002833D12946204606F0A4FB20F0004787
:104C400006461E49384606F0EDFBE8B938461B49D2
:104C5000FBF7D0FEC0B925F000494FF0FF322046E7
:104C60004946174B06F030FB38B9204649464FF00D
:104C7000FF32134B06F00AFB30B12222DAF8003083
:104C80001A603046BDE8F08716F0FF4FF9D10D4BA2
:104C90002B40002BF1D13046BDE8F087002D0A48AB
:104CA00004DAFEF71DFE00F10046EAE7BDE8F04732
:104CB000FEF716BE0000002034010020FFFF7F7FBA
:104CC000FFFFEF7F0000F07FCCE3000842B110B59A
:104CD00010460B491446FBF779FF18B9094810BD77
:104CE0000848704720460749FBF770FF0028F5D0B9
:104CF00020460549FBF76AFF0028EFD0002010BDD1
:104D0000F0E20008ECE20008CCE30008014B93F865
:104D1000280170473401002041B110B508460C4607
:104D20000A49FBF753FF18B9094810BD08487047F6
:104D300020460749FBF74AFF0028F5D020460549E1
:104D4000FBF744FF0028EFD0002010BDF0E2000880
:104D5000ECE20008CCE300082DE9F04FC3B00C46AC
:104D60000C9192460E930D90FEF70CFF03681846C7
:104D70001493FDF739FCA3891390190603D5236911
:104D8000002B00F0BE86002332AA19469146CDE9D9
:104D900026332592129300220023D346CDE9102317
:104DA000CDE915110A919BF80030002B00F04681E7
:104DB0005C4604E014F8013F002B00F02381252B12
:104DC000F8D1B4EB0B0540F020812378002B00F0E4
:104DD00035814FF000034FF0000A8DF877304FF027
:104DE000FF33CDE9083A637804F1010B98460BF1E3
:104DF000010BA8F12003582B00F22D81DFE813F0FE
:104E000050022B012B014B022B012B012B012B01FB
:104E10002B012B01140245022B011E0223022B0140
:104E200040025900590059005900590059005900D1
:104E3000590059002B012B012B012B012B012B01B8
:104E40002B012B012B012B016800A6012B01A601D0
:104E50002B012B012B012B017B022B012B01980035
:104E60002B012B012B012B012B01A9002B012B0165
:104E700058062B012B012B012B012B012B012B01A0
:104E80002B012B012B016D026A00A601A601A601D0
:104E900068026A002B012B015B022B01B8029A0009
:104EA000A702A2022B0180022B01AB002B012B01D8
:104EB00079060022A8F130031BF8018B02EB820275
:104EC00003EB4202A8F13003092BF5D9099290E7D0
:104ED0004AF0100A1AF0200F00F076810E9B07337B
:104EE00023F007031846596850F8083B0A460E900D
:104EF0000029C0F2918108999DF87700002908DB0C
:104F00002AF08001069153EA020100F0B583DDF832
:104F100018A00A2B72F1000180F0898630338DF8D9
:104F2000C7300123CDF818A00B930DF1C70553E04E
:104F30004AF0100A1AF0200200F05F810E9B002157
:104F4000073323F0070318465A6850F8083B0E90C1
:104F50000FE04AF0100A1AF0200200F044810E9B84
:104F60000121073323F0070318465A6850F8083B1D
:104F70000E900020089C8DF87700002C08DB2AF0AA
:104F80008004069453EA020400F07783DDF818A049
:104F90000129BED0022900F0EF8232AD03F00701F3
:104FA000DB0843EA4273D208303153EA02062C464A
:104FB00005F8011DF2D11AF0010F00F0EB82302943
:104FC00000F0E8823023023C05F8013C254632AB74
:104FD0001B1BCDF818A00B93089B0B9A9342B8BFEC
:104FE0001346079300230F9310B1079B01330793D8
:104FF000069B13F0020A42D0079B4FF0020A0233CD
:1050000007933CE0B4EB0B0518D0279BC9E900B52A
:105010002B442793269B0133072B269305DC09F1AC
:1050200008090A9B2B440A93CFE625AADDE90C1058
:1050300003F0D2FC30B90DF1C809F2E7279B002B31
:1050400040F065870C9B9B895B0601F12A800A98DA
:1050500043B0BDE8F08FB8F1000FEFD000238DF81A
:10506000773001238DF8A080079328AD0B93CDF8FE
:1050700018A04FF0000ACDF820A0CDF83CA0069B68
:10508000279C13F0840305D1099A0799561A002E1C
:1050900000F305839DF8772082B10122C9F804202E
:1050A000269A013401320DF17701072A27942692BE
:1050B000C9F8001000F32C8309F10809BAF1000FB8
:1050C0000FD00222C9F80420269A023401321EA908
:1050D000072A27942692C9F8001000F3278309F1C4
:1050E0000809802B00F0BA81089B0B9A9E1A002EAB
:1050F00000F3F881069BDE0500F148810B9BC9F89F
:1051000000501C44C9F80430269B27940133072B18
:10511000269300F35A8209F10809069B5A0705D520
:10512000099B079A9D1A002D00F30E83DDE90923E0
:1051300007998A42ACBF9B185B180A93002C40F079
:105140002F8200230DF1C80926932CE60E9B4FF009
:10515000FF32073323F00703F3E802450E9325F0EF
:10516000004319931894DDE91867B64B3046394669
:10517000CDE9104506F0A8F8002840F026844FF04D
:10518000FF3230463946AF4B06F080F8002840F039
:105190001C84002200232046294606F06DF80028D2
:1051A00040F043869DF87700032200212AF0800317
:1051B000A54D0693A54BCDE90721B8F1470FD8BF00
:1051C0001D460B920F910FE70E9A1AF0100F52F82E
:1051D000043B0E921BD11AF0400F18D043F3C0329B
:1051E00011461BB284E60E9951F8043B0E911AF059
:1051F000100100F0E2830121BBE60E9951F8043B57
:105200000E911AF0100100F0D0831146B1E6DA17C2
:1052100011460029BFF66FAE5B424FF02D004FF0F4
:10522000010162EB4202A5E60E9B53F8042B002A13
:1052300009920E9304DA099B5B4209934AF0040A2F
:105240009BF80030D2E5594611F8018BB8F12A0FCE
:1052500000F06F87A8F13003092B98BF002200F2FD
:10526000DF8611F8018B02EB820203EB4202A8F108
:105270003003092BF5D942EAE2738B460893B8E56F
:105280009BF800304AF0800AB0E52B238DF8773088
:105290009BF80030AAE59BF800304AF0010AA5E52A
:1052A0009DF877209BF80030002A7FF49FAD2022E4
:1052B0008DF877209AE59BF800306C2B03BF9BF8A4
:1052C00001304AF0200A0BF1010B4AF0100A8DE57B
:1052D0009BF800304AF0400A88E5002201210E9B2D
:1052E0008DF8772053F8042B07918DF8A0200E93AA
:1052F00028AD0B91BBE69BF800304AF0080A75E533
:1053000000260E9C089B54F8045B8DF87760002DF6
:1053100000F03285002BC0F203841A46314628463D
:1053200004F002FA002800F06A86431B0B9323EA7C
:10533000E3739DF8770008960E94CDF818A00793B4
:105340000F9651E69BF800304AF0200A4EE547F6EA
:1053500030030E9A3E48ADF8783052F8043B0221F3
:105360000E924FF0780800224AF0020A159000E6EB
:105370001AF0200F00F00C830E9B0A9A1B681A602B
:10538000D2175A600E9B04330E930CE5B8F1650FEB
:1053900040F32781DDE910010022002305F062FFC0
:1053A000002800F00E820123C9F80430269B294A08
:1053B00001330134072B27942693C9F8002000F30A
:1053C000B48409F108091F9B129A934203DB069BE0
:1053D000DD077FF5A2AE139B149A1C44C9E9002394
:1053E000269B27940133072B269300F3B88409F1F9
:1053F0000809129B5D1E002D7FF78FAE102D269B96
:1054000040F3D780DDE90CA81026134F05E009F121
:105410000809103D102D40F3CD8001331034072BC7
:10542000C9E90076CDE92634F1DD5146404625AA8A
:1054300003F0D2FA00287FF405AEDDE926340DF141
:10544000C809E6E7FFFFEF7FFCE20008F8E200088A
:105450001CE3000838E3000838DC0008099B079AC1
:105460009E1A002E7FF740AE102E269B40F3E0855B
:105470004A462146A946DDE90C544FF0100AB74FC1
:1054800004E0103E102E02F1080215DD0133103148
:10549000072BC2E9007ACDE92631F2DD2946204604
:1054A00025AA03F099FA00287FF4CCADDDE9263176
:1054B000103E102E32AAE9DC4D460C4691460133CF
:1054C0003444072BCDE92634C9F80070C9F80460CC
:1054D00000F33884089B0B9A09F108099E1A002EE4
:1054E0007FF708AE102E269B9C4F2CDD4A462146A6
:1054F000B1464FF0100A2E46DDE90C5406E0A9F142
:105500001009B9F1100F02F1080218DD01339348B8
:105510001031072BC2E9000ACDE92631EFDD29461B
:10552000204625AA03F058FA00287FF48BADDDE968
:105530002631A9F11009B9F1100F32AAE6DC35467F
:105540000C464E46914601333444072BCDE92634B0
:10555000C9F80070C9F8046000F3F08109F1080986
:10556000C8E501294FF00003DDF818A03FF4D6ACE0
:1055700002291A467FF411AD159C32AD03F00F01DC
:10558000615C1B0943EA0273120905F8011D53EA25
:105590000201F3D132AB5B1BCDF818A00B931BE5D6
:1055A00025AADDE90C1003F017FA00283FF4C9AD75
:1055B00048E56A4F01332C44072BC9F80070C9F83D
:1055C0000450CDE926347FF7A6ADDDE90C1025AAFD
:1055D00003F002FA00287FF435AD279C0DF1C809CD
:1055E0009BE5129B269E012B04F1010406F10106A6
:1055F00009F1080840F35E810123072ECDE92664F6
:10560000C9F80050C9F8043000F3A581139B013696
:10561000149A1C44072EC8E90023CDE9266400F340
:10562000A78108F10808129B0022DDE9100103F1AF
:10563000FF39002305F016FE002840F056810136A0
:1056400001354C44072ECDE92664C8F80050C8F84F
:10565000049000F33D8108F10808169B01361C44B4
:10566000C8F80430072E21ABCDE92664C8F8003015
:10567000ABDC08F1080950E50121089B002B7FF401
:1056800070AF002940F011811AF001030B9300F074
:105690007C8130230DF1C7058DF8C7309CE4102EB6
:1056A000269A2F4F26DD49462046A946DDE90C54AF
:1056B000179304E0103E102E01F1080116DD1023AF
:1056C00001321030072ACDE926200F604B60F1DD52
:1056D0002946204625AA03F07FF900287FF4B2ACC2
:1056E000DDE92620103E102E32A9E8DC4D460446A6
:1056F0008946179B01323444072ACDE92624C9F88C
:105700000070C9F8046000F3018309F10809C1E4DD
:1057100025AADDE90C10179303F05EF900287FF449
:1057200091AC279C179B0DF1C809C7E425AADDE9B8
:105730000C10179303F050F900287FF483AC279CDA
:10574000179B0DF1C809CCE4102D269B40F36D8406
:10575000DDE90CA81026024F09E000BF38DC000884
:1057600028DC0008103D102D09F1080916DD013371
:105770001034072BC9E90076CDE92634F2DD514615
:10578000404625AA03F028F900287FF45BACDDE948
:105790002634103D102D0DF1C809E8DC01332C44EE
:1057A000072BC9E90075CDE926347FF7BFACDDE9E9
:1057B0000C1025AA03F010F900287FF443AC279CB5
:1057C000B4E41F99002940F36D820F9F129B9F4202
:1057D000A8BF1F46002F0BDD269B3C440133072B3F
:1057E000C9E900572794269300F3EB8309F10809D0
:1057F0000F9E002FA8BFF61B002E00F3A9811F9B50
:10580000129A934280F27881139A14991444C9E948
:105810000012269A27940132072A269200F3178352
:1058200009F10809129A0F99D31A561A9E42A8BF75
:105830001E46002E0EDD269A0D4401323444072AFE
:10584000C9F80050C9F804602794269200F3C88371
:1058500009F10809002EB4BF1D469D1B002D7FF7DE
:105860005CAC102D269B7FF7A4AEDDE90CA81026BA
:10587000B44F05E009F10809103D102D7FF79AAEED
:1058800001331034072BC9E90076CDE92634F1DD68
:105890005146404625AA03F09FF800287FF4D2AB7A
:1058A000DDE926340DF1C809E6E7089B32AD0B931C
:1058B000FFF792BB069BD9073FF59EAE0123072E4B
:1058C000CDE92664C9F80050C9F804307FF7C5AEA9
:1058D000DDE90C1025AA03F07FF800287FF4B2ABB5
:1058E000DDE926640DF1C808B7E6129B012B7FF7AE
:1058F000B4AE112B40F349821025924FDDF834A04D
:1059000007E008F10808A9F11009B9F1100F40F3F8
:105910003D8201361034072EC8E90075CDE92664B2
:10592000EFDD50460C9925AA03F056F800287FF4C5
:1059300089ABDDE926640DF1C808E4E725AADDE9B5
:105940000C1003F049F800287FF47CAB279C0DF184
:10595000C809FFF7CFBB25AADDE90C1003F03CF81E
:1059600000287FF46FABDDE926640DF1C8084DE631
:1059700025AADDE90C1003F02FF800287FF462ABB4
:10598000DDE926640DF1C8084DE632ADFFF724BB12
:105990001AF0100F40F002811AF0400F00F0FE8064
:1059A0000E9B0A9A1B681A80ECE41AF040021CBF96
:1059B0000A469BB21146FFF7DCBA1AF040021CBF40
:1059C0000A469BB20121FFF7D4BADDE91001024675
:1059D0000B4605F079FC002840F07583089B28F001
:1059E00020065A1C00F0F982472E03D1002B08BF75
:1059F000012308934AF48070DDE91012002A069012
:105A0000C0F23A8200231793DDE91034CDE91A344D
:105A1000B8F1650F00F0008300F33582B8F1450F4F
:105A200000F0FA82089B0D9801930223009323ABA8
:105A3000049320AB03931FAB0293DDE91A2301F01B
:105A4000F9FC1AF0010F054600F0AE80089BC4185F
:105A50000022DDE91A01002305F004FC002840F0D3
:105A60003382239BA34206D230215A1C2392197001
:105A7000239B9C42F9D81F9A0F925B1B472E1293CF
:105A800000F09780B8F1660F40F099800F99089A5E
:105A90000AF00103002943EA020340F36982002B64
:105AA00040F02C830F9B4FF0660807930B9324E282
:105AB000254B15931AF0200200F0AB800E9B0733A4
:105AC00023F0070319465A6851F8083B0E911AF063
:105AD000010F00F09B8053EA020100F09780302113
